:020000040800F2
:10000000301100208902000839420008113F000821
:10001000354200080D160008554700080000000092
:100020000000000000000000000000004142000845
:1000300029160008000000003D4200084542000863
:10004000A3020008A3020008A3020008A3020008FC
:10005000A3020008A3020008A3020008A3020008EC
:10006000A3020008A3020008A3020008A3020008DC
:10007000A3020008A3020008A3020008A3020008CC
:10008000A3020008A3020008A3020008A3020008BC
:1000900011160008A3020008A3020008A30200082A
:1000A000A3020008A3020008A3020008A30200089C
:1000B000A3020008A3020008A3020008A30200088C
:1000C000A3020008A3020008A3020008A30200087C
:1000D000A30200083D470008A302000849470008A2
:1000E000A3020008A3020008A3020008A30200085C
:1000F000A3020008A3020008A3020008A30200084C
:10010000A3020008A3020008A3020008A30200083B
:10011000A3020008A3020008A3020008A30200082B
:10012000A30200081D160008A3020008A30200088D
:10013000A3020008A3020008A3020008A30200080B
:10014000A3020008A3020008A3020008A3020008FB
:10015000A3020008A3020008A3020008A3020008EB
:10016000A3020008A3020008A3020008A3020008DB
:10017000A3020008A3020008A30200080000000078
:10018000A3020008A302000800F002F800F06CF8D7
:100190000AA090E8000C82448344AAF10107DA45E2
:1001A00001D100F061F8AFF2090EBAE80F0013F0C8
:1001B000010F18BFFB1A43F00103184790520000CB
:1001C000B0520000103A24BF78C878C1FAD852075C
:1001D00024BF30C830C144BF04680C6070470000C1
:1001E0000023002400250026103A28BF78C1FBD840
:1001F000520728BF30C148BF0B607047692900F023
:100200005D81642900F05A81752900F057816F29BA
:1002100000F0EE81782900F015820368DB0928BF21
:1002200041F08001632900F09884732900F09D84D7
:10023000E32900F0BB84002070471FB504F08AFF5B
:100240009DE8030000F0CCFE00F0AEFD04000020AD
:10025000002104F069FF401C606000F0E3FC1FBD5A
:1002600010B500F048FD10BD00F078FD1146FFF715
:10027000E4FF04F0DDFC00F083FE03B4FFF7F0FFC1
:1002800003BC01F01FF800000948804709480047F7
:10029000FEE7FEE7FEE7FEE7FEE7FEE7FEE7FEE736
:1002A000FEE7FEE704480549054A064B7047000093
:1002B000F942000889010008300B002030110020AD
:1002C000300D0020300D002053EA020C00F0698050
:1002D0002DE9F04B4FF00006002B1FBFB3FA83F55A
:1002E00003FA05F424FA05F65E4012BF1643B2FA8B
:1002F00082F502FA05F4C5F120051EBF22FA05FCBD
:1003000044EA0C04203556EA044C4FEA144418BF62
:10031000641C4FF000084FF00009904271EB030C91
:1003200039D3002919BFB1FA81F701FA07F6B0FAFB
:1003300080F700FA07F6C7F120071EBF20FA07FC76
:1003400046EA0C062037B6FBF4FCA7EB0507103F86
:1003500007F01F0BCBF120062CFA06F60CFA0BFB6C
:1003600044BFB3460026202FA4BF5E464FF0000BCB
:100370005BEA060C08BF4FF0010B19EB0B0948EBC9
:100380000608ABFB027C06FB02CC0BFB03CCC01BBC
:1003900071EB0C01C1E70B46024641464846BDE8F9
:1003A000F08B13B5084318BF4FF0FF300146AFF391
:1003B0000080BDE81C4070470FB4044910B503AA83
:1003C000029800F0D7FB10BC5DF814FB6C00002015
:1003D0000FB41CB5074B06AA7B44694600900598EC
:1003E00000F099FB0020694600F0A8FB1CBC5DF8FA
:1003F00014FB00006107000070B5044685690068C1
:10040000C10601D5302600E02026C00707D070BD08
:10041000D4E9012130469047206A401C20626D1EBD
:10042000F6D570BD70B5044685690078C00707D160
:1004300070BDD4E9012120209047206A401C206231
:100440006D1EF6D570BD09684A0501D540B27047EA
:10045000C905FCD500B2704709684A0501D5C0B28C
:100460007047C905FCD580B2704770B50C4605468B
:10047000012A05D02878800600D5EA69002302E029
:10048000012305E05B1C934202D2E05C0028F9D115
:10049000A869E618C01AA861286A18442862284684
:1004A000FFF7AAFF04E0D5E9012114F8010B9047FA
:1004B000B442F8D32846FFF7B5FF70BD2DE9F041EF
:1004C0000646002410687529314616A510D0FFF79E
:1004D000BAFF002802DA404213A507E031688A0714
:1004E00001D512A502E0490704D511A5012401E0B8
:1004F000FFF7B2FF00210A2206F1240709E0B0FB52
:10050000F2FCB0FBF2F302FB1C00303078541846CA
:10051000491C0028F3D123462A463046BDE8F04165
:1005200000F09BBA000000002D0000002B0000002E
:10053000200000002DE9FF5F15468A460446DFF8DB
:10054000AC80F8440027D8E900103E46CDE9001001
:1005500010E03AF816106A4602A800F033FB411C7E
:1005600007D02178890603D5E269391891420DD860
:100570000744761C2078800602D5E069B84205DD84
:10058000AE42E6DB3AF816000028E2D1A069C01BB3
:10059000A0612046FFF730FFD8E90010CDE9001038
:1005A000002017E03AF818106A4602A800F00AFB8B
:1005B000B0F1FF3F81460BD000250DF1080B05E09F
:1005C000D4E901211BF8050090476D1C4D45F7D378
:1005D00008F10100B0428046E4DB206A3844206222
:1005E0002046FFF71FFFBDE8FF9F00002A4C0000D8
:1005F00070B5044621461068FFF72EFF002104F174
:10060000240505E000F007023032C0086A54491C96
:100610000028F7D12068002308A2050708D500F0BC
:100620002000084304D0E069012305A2401EE061D8
:100630002046BDE8704000F010BA00000000000045
:100640003000000070B504460D4621461068FFF7E3
:1006500003FF2188090502D50F4A7A4402E00E4AB9
:100660007A440E32002104F1240305E000F00F0665
:100670000009965D5E54491C0028F7D120780023BC
:10068000000704D5702D02D009B102231132204693
:10069000BDE8704000F0E1B91A4B00002DE9F05FB1
:1006A000894604464FF0000ADFF874B1FB44C0F8F5
:1006B00020A02046E1688847002874D0252806D06D
:1006C000D4E901219047206A401C2062F1E700260E
:1006D0005F462046E16888472028054607DB312D24
:1006E00005D2781910F8200C08B10643F1E7B007DD
:1006F00001D526F00406C4F81CA00027C4F818A0F1
:100700002A2D09D0284604F007FD38B304EB8708EA
:10071000303DC8F8185019E059F8041B204604EB86
:1007200087029161E1688847012F054618D1E06989
:10073000002820DA26F020061DE0D8F8180000EB8B
:10074000800005EB40003038C8F818002046E1680A
:100750008847054604F0E0FC0028EED1012F0AD0BE
:100760002E2D08D12046E16888477F1C0546022FC0
:1007700046F02006C4DBA069002803DA404246F0B8
:100780000106A061F00701D026F010066C2D0BD0F9
:10079000682D09D04C2D39D06A2D35D0742D35D027
:1007A0007A2D33D016E038E0E1682F46204688479E
:1007B000B842054609D16C2F26D04FF48060E1681D
:1007C000064320468847054604E06C2F1AD04FF4B4
:1007D000807006430DB3A5F14100192802D82035D9
:1007E00046F400664A462946204626604E46FFF7F4
:1007F00005FD80B101280BD0F61D26F0070000F1A1
:10080000080956E74020E4E78020D8E70020D6E733
:1008100006F104094DE7284652E7206ABDE8F09F3B
:10082000F04A0000014904F083B900006C00002088
:1008300010B5044603E004F07BF9401C09D014F81D
:10084000010B05490028F6D1BDE810400A2004F04C
:100850006FB94FF0FF3010BD6C00002030B5054679
:100860000B462A4613F8014B12F8010B08B1A042BF
:10087000F8D01CB1002802D06D1CF1E7284630BD2D
:1008800040EA010310B59B070FD1042A0DD310C80D
:1008900008C9121F9C42F8D020BA19BA884201D95F
:1008A000012010BD4FF0FF3010BD1AB1D30703D0A7
:1008B000521C07E0002010BD10F8013B11F8014B5D
:1008C0001B1B07D110F8013B11F8014B1B1B01D179
:1008D000921EF1D1184610BD40EA0103024630B520
:1008E0009B0710D14FF0013400E008C208C91D1B5E
:1008F0009D4315EAC41FF8D013F0FF0102F8011B55
:100900000DD01B0AF8E711F8013B002B02F8013B60
:1009100005D011F8013B002B02F8013BF3D130BDAB
:1009200010B5203AC0F00B80B1E81850A0E818507C
:10093000B1E81850A0E81850203ABFF4F5AF5FEACC
:10094000027C24BFB1E81850A0E8185044BF18C971
:1009500018C0BDE810405FEA827C24BF51F8043B18
:1009600040F8043B08BF7047D20728BF31F8023B6C
:1009700048BF11F8012B28BF20F8023B48BF00F800
:10098000012B70474FF0000200B51346944696467F
:10099000203922BFA0E80C50A0E80C50B1F1200192
:1009A000BFF4F7AF090728BFA0E80C5048BF0CC040
:1009B0005DF804EB890028BF40F8042B08BF70479E
:1009C00048BF20F8022B11F0804F18BF00F8012B10
:1009D000704700000000000030B44FF0013C50F8B8
:1009E000042B51F8043BCCFA52F4D51A20D1FCB9AF
:1009F00050F8042B51F8043BCCFA52F4D51A17D115
:100A0000B4B950F8042B51F8043BCCFA52F4D51A7F
:100A10000ED16CB950F8042B51F8043BCCFA52F4C7
:100A2000D51A05D1002CDAD030BC4FF00000704749
:100A300029BAB1FA81F111F01801D1F120008440F6
:100A4000F2D1CA40CB4012F0FF0213F0FF0330BCDA
:100A5000D01A70477047704770472DE9F0470D4630
:100A600099469246044600F124080168880604D598
:100A7000E06921F01001216000E00120A84201DDC1
:100A8000471B00E00027A1697A1902EB0900081A48
:100A9000A0612078C00602D42046FFF7ADFC0026F6
:100AA00008E0D4E901211AF806009047206A401CAA
:100AB000761C20624E45F4DB2078C0060AD520461D
:100AC000FFF79AFC06E0D4E9012130209047206A24
:100AD000401C2062381EA7F10107F4DC07E0D4E9CE
:100AE000012118F805009047206A401C2062281E4A
:100AF000A5F10105F3DC2046FFF794FC2078000601
:100B000002D50220BDE8F0870120FBE701694A1CFD
:100B100002610878704700B58FB0CDE9013100213E
:100B2000059105497944CDE9031011466846FFF760
:100B3000B5FD0FB000BD0000E5FFFFFF0A6802F839
:100B4000010B0A60704710B5436913B1AFF3008021
:100B500001E0FFF78AFC012010BD127800F12401AA
:100B60000A7000224A700122EDE711684FF0FF324F
:100B7000E9E70000074B70B50D467B44FFF7CBFF5C
:100B80000446284600F04AF810B14FF0FF3070BD1F
:100B9000204670BDB33F000010B5436913B1AFF3F9
:100BA000008001E0FFF7C6FC012010BD128800F1B3
:100BB000240182840022C2840122EDE711684FF0F3
:100BC000FF32E9E72DE9F04116460C46054600F0F4
:100BD0001DF8036893F80101012807D0FF2C12D8F3
:100BE000185D80B101202C70BDE8F081D3F80701B9
:100BF0003246214603F20713C7182846BC46BDE813
:100C0000F041002360474FF0FF30EDE710B500F0F2
:100C1000CBF8001D10BD00BF11450000007B00F0A7
:100C20008000704710B542485421FFF7ABFE4148A1
:100C30005421FFF7A7FE40485421FFF7A3FE3F4988
:100C40003B483C4A3F4B08603D490A603A491960BD
:100C5000531C0365481C1065012008653B48344A55
:100C600039A1784400F0EEF820B9384878440A38C1
:100C700000F08FF937482F4A35A1784400F0E2F8A8
:100C800020B9344878440A3800F083F932482A4AB7
:100C90002FA1784400F0D6F820B92F4878440A38BC
:100CA00000F077F940232248DC000021224600F0C2
:100CB000A6F820B125487844543800F06AF91D4858
:100CC00022464023002100F09AF820B121487844C0
:100CD000543800F05EF9184822461023002100F035
:100CE0008EF8002806D01C487844BDE810405638DD
:100CF00000F04FB910BD104870B5006D20F0010430
:100D00000B4800F017F90B4800F014F90A4800F0FE
:100D100011F909E0206D20F00105204600F00AF9E4
:100D2000204600F045F82C46002CF3D170BD0000A1
:100D3000180000206C000020C000002000000020EF
:100D40000400002008000020720000006B45000035
:100D5000770000005A45000033450000754600F05A
:100D60001FF9AE4605006946534620F00700854648
:100D700018B020B5FFF796FABDE820404FF0000606
:100D80004FF000074FF000084FF0000BAC46ACE806
:100D9000C009ACE8C009ACE8C009ACE8C00921F062
:100DA00007018D467047000000487047340100205D
:100DB00070B50446051F00F0F7F80068002C14BF5A
:100DC000446870BD002C18BFAC423CBF204664682C
:100DD000F8D301680A18AA4218BF456003D12A68EF
:100DE00005461144016028684119A1421CBF6C608E
:100DF00070BD6168696021680844286070BD70B585
:100E0000C468A50713D0650211D4B2F5807F09D05C
:100E1000B2F5007F06D0B2F5806F08D1012300F152
:100E2000240106E05D1E6FF07F46B54201D301202C
:100E300070BD0161C361416024F470611143C16000
:100E4000002070BD2DE9F0410C461646070047D042
:100E5000104600F06FF82078611C61280AD07228D3
:100E600002D077283CD102E00125002405E00225CC
:100E7000042402E0082448F2020511F8010B2B2893
:100E800006D0622809D011F8010C74280AD00BE0B2
:100E900045F0030544F00204EFE745F0040544F093
:100EA0000104EAE744F010043846214603F068FCE8
:100EB000411C15D00021316171604FF40071F56063
:100EC000F1617061200704D530460222002100F054
:100ED000E5F8306D40F0010030653046BDE8F08146
:100EE0000020FBE72DE9F0410D460646104C206D31
:100EF000C10704D0410804D020F00104F7E72246DE
:100F00000EE0542000F09BF807000ED0206D47F053
:100F100001010843542120653846FFF733FD3A4666
:100F200029463046BDE8F0418CE70020D6E70000B6
:100F3000180000202DE9F04704464FF000094FF05B
:100F4000FF37C568D4E90486A80707D0204600F01B
:100F500055F9304603F000FC002802DA3846BDE8B7
:100F6000F087280502D54046FFF722FF4C21204696
:100F7000FFF708FD206D20F0010020654846EEE7F0
:100F800010B50446AFF300802046BDE81040FFF7DF
:100F900074B910B500F07CF9BDE8104000F072B9EA
:100FA0000048704714010020004870471C010020D1
:100FB000704770477047704738B504460A460020AE
:100FC0006946AFF30080002808BF38BD024600998B
:100FD000204600F084F9012038BD012000F0D3B98B
:100FE000F8B5AFF30080054600200C46102000BF86
:100FF0000646A819A0420DD9324669460020AFF333
:101000000080070008BF00F0BEF90098A04218BF9A
:101010000546C419FFF7C8FF05600746F01D20F01C
:1010200007004619284600F053F9B44208BFF8BD3E
:10103000A21B31463868BDE8F84000F050B970B5E1
:101040000646FFF7B1FF056806F10B0020F0070424
:10105000B4429CBF002070BD2B466A68BAB11068CC
:10106000A04210D304F1080188423CBF5068586088
:1010700007D35168101941601168091B016058605D
:101080001460101D70BD13465268002AE7D1214636
:101090002846FFF791FF0028DED170BD2DE9F04111
:1010A000044616460D464769007B80072ED0384619
:1010B00003F05EFB50BB3EB3012E02D0022E25D1C1
:1010C00004E0204600F025F905441DE0384603F011
:1010D0004DFBE168002841F01001E16005DA20468F
:1010E00000F058F80120BDE8F081C9030BD5626813
:1010F000E16A914200D81146A26911442269891A15
:10110000814200DD08460544002D01DA0220EAE7AD
:10111000E16A6068E268814206D29103E06203D529
:1011200022F4003141F01002A6690027AE4213DC20
:10113000E16A814201D90B4600E0034603EB060C4D
:101140002369ACEB030CAC4506DD814201D98C462A
:1011500000E084469C4505D1A760276042F020004E
:10116000A5620DE0AD1BE669AE1B8142A66000D909
:101170000846C01A281A20605819606022F0200022
:1011800003490840E060002084F84870ABE70000A5
:10119000BFCFD7FFC16821F4001141F08001C160C9
:1011A00000218160016070472DE9F04781461446B7
:1011B0000E464FF0FF383248D5685769054209D0CE
:1011C0003846A16903F00EFB002811DB2C48C04310
:1011D0000540E5602B4632464946384603F006FB9B
:1011E000A16920F00042B21A11440028A16103D085
:1011F0002046FFF7CFFF4046BDE8F08770B50446B4
:101200000569C06A6168884200D80846E16821F42F
:101210002011E160C90312D5A84208D02246411B23
:101220002846FFF7C1FF10B14FF0FF3070BD00201E
:10123000E562C4E90150E06820F48030E0600020FD
:1012400070BD10B50446C06820F02000E060A16ABF
:10125000A06988420DD02046FFF7D0FFE06820F457
:10126000405040F01000E060A06AA0612069E06298
:10127000606044F24001E0688843E06010BD000017
:1012800010000200002801D000F01CB870470000D8
:1012900010B5014602A000F05DF8012010BD00006D
:1012A00053494752545245443A2052656469726525
:1012B00063743A2063616E2774206F70656E3A2004
:1012C0000000000001491820ABBEFEE72600020026
:1012D00000210160C0E901107047102070470346EB
:1012E00040688C46002818BF88423CBF03464068CF
:1012F000F8D318681844884207D00CF1030020F096
:101300000700001D411A521A0146081D0A60FFF726
:101310004FBD10B50146C268900703D0900607D5AF
:10132000886A0AE000F03EF801210160881E10BDC5
:101330008B69486818440B69C01A91F848301BB192
:1013400091F84910401A10BD1103FCD50028FADDB0
:10135000401E10BD70B505460C460A2000E06D1C0D
:1013600000F018F835B128780028F8D102E0641CA4
:1013700000F010F814B120780028F8D1BDE87040D2
:101380000A2000F007B810B500F010F8BDE81040D2
:10139000FFF778BF08B569468DF800000320ABBEA3
:1013A00008BD7047004870471401002010B501289F
:1013B00005D0002103A0FFF7CDFF012010BD09A13A
:1013C000F8E7000053494752544D454D3A204F75B8
:1013D00074206F662068656170206D656D6F72792D
:1013E000000000003A2048656170206D656D6F72E5
:1013F0007920636F72727570746564002DE9F04F27
:1014000081B041F60004C4F2020420464FF480711A
:101410000122012600F056FF20468021012200F023
:1014200051FF4FF4FA7000F053FE20468021002255
:101430004FF0000800F046FF20464FF48071002274
:1014400000F040FF41F2883000F042FE40F2C41547
:10145000C2F2000528464FF48071FFF793FA65A0A9
:1014600066A1002203F0D8F9814628464FF4807126
:10147000FFF788FA40F2BC1BC2F2000B9BF8020097
:1014800040F274140128C2F2000474D045F22235EF
:1014900045F21E20C0F600050227C0F600002946CE
:1014A0002770FEF789FFC82000F012FE45F20720E2
:1014B000C0F6000029462670FEF77EFF9BF802006A
:1014C000012858D045F2223545F21E20C0F600050D
:1014D000C0F6000029462770FEF76EFFC82000F016
:1014E000F7FD45F207204FF0010AC0F6000029463B
:1014F00084F800A0FEF760FF9BF8020001283AD0B4
:1015000045F2223545F21E20C0F600050227C0F63E
:10151000000029462770FEF74FFFC82000F0D8FDD5
:1015200045F20720C0F60000294684F800A0FEF727
:1015300043FF9BF8020001281DD045F2223545F2F9
:101540001E20C0F60005C0F6000029462770FEF7F1
:1015500033FFC82000F0BCFD45F207204FF0010A20
:10156000C0F60000294684F800A0FEF725FF9BF88E
:101570000200012818D145F2E81045F22231C0F6E8
:101580000000C0F6000126708BF80280FEF714FF01
:101590001BA01DA1002206EA090403F03DF920402A
:1015A00001B0BDE8F08F00BF022045F22235207067
:1015B00045F21E20C0F60005C0F600002946FEF7E1
:1015C000FBFEC82000F084FD45F20720C0F60000B5
:1015D000294684F800A0FEF7EFFE45F2F610C0F6AB
:1015E0000000294684F800A0FEF7E6FE00268BF8EE
:1015F0000260CDE741542B43494D49003436300059
:1016000041542B435351000043535100FEE7000067
:1016100040F60020C2F2000000F0A0B840F62820FA
:10162000C2F2000000F072BB70470000EFF31080C0
:1016300072B600BFFEE700007047000010B590F8DA
:101640002040013C012C71D8D0F800C0002977D08F
:10165000DCF81040A40777D00CEB011CDCF8B0419B
:101660000CF5D87E14F004049460DCF8B04119BF86
:10167000E4085460640D1460DEF80040002904F0B2
:101680000204D460DCF8B44104F00F041461DCF807
:10169000B441C4F307249461DCF8B4414FEA144424
:1016A0005461DCF8B8211A70026802EB0112D2F81A
:1016B000B8214FEA12225A70026802EB0112D2F8E6
:1016C000B8214FEA12429A70026802EB0112D2F876
:1016D000B8214FEA1262DA70026802EB0112D2F806
:1016E000BC211A71026802EB0112D2F8BC214FEA48
:1016F00012225A71026802EB0112D2F8BC214FEAA1
:1017000012429A71026802EB0112D2F8BC214FEA30
:101710001262DA71006814BF00F1100100F10C01CF
:10172000002020220B681A430A6010BD00F124013A
:1017300001204FF480220B681A430A6010BD00BFDD
:10174000DCF80C40A40787D100F1240101204FF4FC
:1017500000120B681A430A6010BD00002DE9F04F1B
:1017600081B0044600684669D0F804908768D0F8D4
:101770000CB0D0F810A0D0F81880F10704D10025E3
:1017800030071DD424E000BFF90710D00121BA07AB
:10179000816009D4780700F1AF80380700F1B68086
:1017A000204600F049FA02E0204600F047FA002502
:1017B000F80500F18780F80300F1B180300707D504
:1017C0001BF0100004D0206845F400751021C160A2
:1017D000700708D51BF0080005D020680821C160FB
:1017E000204600F0A3F9B00706D52068C06880073E
:1017F00002D0204600F09CF9700607D51AF01000C0
:1018000004D0206845F4806510210161B00608D538
:101810001AF0080005D0206808210161204600F078
:1018200005FAF00606D520680069800702D0204638
:1018300000F0FEF9B00308D519F0100005D02068BB
:1018400010214160204600F0F5F9F00308D519F0A9
:10185000080005D0206808214160204600F0F8F912
:10186000300440F19B805FEA497040F1948006F4B7
:10187000807008EA102028435FEA8871014648BF5B
:1018800041F00201B20558BF01465FEA48700D46BB
:1018900048BF45F00405700558BF0D46300540F1BE
:1018A0007A8018F0700000F0768010380009052862
:1018B0006CD8DFE800F003595D61656945F0080503
:1018C00064E000BF20684FF48071BA0581600BD4DA
:1018D000780515D438051DD4204600F0B1F9F80379
:1018E0007FF56CAF1BE000BF204600F0ABF9F803BA
:1018F0007FF564AF13E000BF4FF4006558E700BF09
:1019000005F50055F8037FF559AF08E04FF4805511
:101910004EE700BF05F58045F8037FF54FAF20681F
:101920004FF48031BA0381600AD4780310D43803AD
:1019300014D4204600F088F930073FF541AF47E75F
:10194000204600F083F930073FF53AAF40E700BF8B
:1019500005F5004530073FF533AF39E705F580352C
:1019600030073FF52DAF33E745F010050EE000BF1F
:1019700045F020050AE000BF45F0400506E000BF45
:1019800045F0800502E000BF45F48075206881695C
:1019900021F07001816120680421416055B1606AC5
:1019A00040EA05012046616201B0BDE8F04FFFF753
:1019B00043BE00BF01B0BDE8F08F0000B0B5C8B1B4
:1019C000044690F8200010B9204600F071F8206815
:1019D000016841F00101016000F07AFC054600BF9A
:1019E00020684168C90707D100F072FC401B0B2832
:1019F000F6D312E00120B0BD016821F002010160C0
:101A000000F066FC054600BF2068416889070DD5D7
:101A100000F05EFC401B0B28F6D3606A052140F401
:101A200000306062012084F82010B0BD217E026881
:101A3000012922F0800208BF80320260617E0268C4
:101A4000012922F0400208BF40320260A17E0268F4
:101A5000012922F0200208BF20320260E17E0268E4
:101A6000012922F0100218BF10320260217F0268A3
:101A7000012922F0080208BF08320260617F026873
:101A8000012922F0040208BF04320260D4E901C235
:101A9000D4E9033561691A432A431143ACF10102C9
:101AA0001143C16100200121606284F82010B0BDA3
:101AB00080B586B0016846F20040C4F20000814261
:101AC00002D006B080BD00BF002143F63002019174
:101AD000C4F20202136900F5D03043F000731361C1
:101AE000136903F000730193019B0191136843F0A4
:101AF00002031360126802F002020192019A4FF48D
:101B0000407201920222CDE90221032104910921B0
:101B1000059101A900F0F0FA14200021002200F044
:101B200057FC142000F044FC06B080BD7047000054
:101B300010B582B040F60021C2F20001884201D007
:101B400002B010BD40F6E41440F60020C2F20004DA
:101B5000C2F200006B4600212246FFF76FFD00280D
:101B6000EED110A0FEF764FE216813A0FEF724FC5E
:101B70009DF8001017A0FEF71FFC9DF801101AA099
:101B8000FEF71AFC9DF802101CA0FEF715FC9DF84C
:101B900003101FA0FEF710FC22A0FEF749FE02B0C2
:101BA00010BD00BF2D2D2D3E446174612052656330
:101BB0006569657665210D0052784D6573736167BF
:101BC000652E5374644964206973202523780D0AB7
:101BD00000000000646174615B305D206973203037
:101BE00078253032780D0A00646174615B315D20C4
:101BF0006973203078253032780D0A006461746191
:101C00005B325D206973203078253032780D0A0010
:101C1000646174615B335D206973203078253032F4
:101C2000780D0A003C2D2D2D0D000000704700009E
:101C300070470000704700007047000070470000C8
:101C400070470000704700007047000070470000B8
:101C50007047000070B5866D044600F039FB94F8BB
:101C6000351002292ED105462068216C026822F029
:101C700016020260426922F08002426109B9A16C39
:101C800019B1016821F008010160016821F001012A
:101C900001600068C00708D000F01AFB401B05284F
:101CA00018D820680068C007F6D1E06D3F2101FA1E
:101CB00000F0B060012084F835000020002184F895
:101CC000341070BD802060650120002184F834103C
:101CD00070BD00BF20206065032084F8350000211E
:101CE00084F8341070BD000090F83510022909D135
:101CF000052180F835100068016821F001010160BC
:101D0000002070478021416501207047F0B581B007
:101D100004460020009040F21400C2F20000026865
:101D2000D4E9166048F2B51337680821C1F64E337E
:101D300081403942A2FB03250CD0226813685B075F
:101D400008D5136823F004031360B160616D41F09E
:101D50000101616501218140394208D02268526940
:101D6000120604D5B160616D41F002016165042184
:101D70008140394208D022681268920704D5B160C8
:101D8000616D41F00401616510218140394217D035
:101D900020680268120713D5B16002680168520317
:101DA00008D4C90508D4016821F008010160216C3C
:101DB00021B905E008033FD4216C09B120468847CA
:101DC000E16D202000FA01F23A4241D02068036818
:101DD000DB063DD5B26094F835300268052B1BD187
:101DE00022F016020260426922F080024261226CF7
:101DF0000AB9A26C1AB1026822F0080202603F2000
:101E00008840B060012084F83500216D0020002951
:101E100084F8340052D157E00168520310D4C90548
:101E200012D4016821F010010160012084F835000E
:101E3000002084F8340007E0A16C0029BED1BFE780
:101E4000080301D4616C00E0E16B09B120468847CA
:101E5000606DC8B3606DC0072ED0052084F83500D2
:101E60002068A90A026822F001020260009A013289
:101E70008A4200921AD80268D20717D0009A01321B
:101E80008A42009212D80268D2070FD0009A01321B
:101E90008A4200920AD80268D20707D0009A01321B
:101EA0008A42009202D80268D207DFD1012084F86A
:101EB0003500002084F83400E16C29B1204601B0DF
:101EC000BDE8F040084700BF01B0F0BD2DE9F0418A
:101ED000044600F0FDF9002C4ED00546022084F89F
:101EE00035000020216884F83400086820F00100E3
:101EF00008600868C00708D000F0EAF9401B052810
:101F00006CD821680868C007F6D1086848F23F021B
:101F1000CFF21002D4E90135024004F10C0E9EE824
:101F2000C1511A432A4310433043384340EA080062
:101F3000626A40EA0C00042A40EA0E0320D1D4E988
:101F40000A5E206B4EEA0302104308604869BEF146
:101F5000000F20F0030040EA050040F0040C15D00B
:101F6000B8F5005F42D0B8F1000F51D1022D52D028
:101F7000012D47D055B94EE00120BDE8F08100BFEA
:101F80000B60486920F0070040EA020C6FF00F0078
:101F90004AF6AB2250FA81F0CAF6AA22A0FB02232D
:101FA0001A0945F2E013C0F600039A5C40F2FF33D1
:101FB0005F284FF03F00C1F814C021EA030100FA86
:101FC00002F088BF0431C4E91612886000230122A0
:101FD0000020636584F83520BDE8F08103222023CA
:101FE0000320636584F83520BDE8F081032DCDD84A
:101FF000012240230120DFE805F0030E030500BFA6
:10200000E7E700BFAEF1C070B0FA80F0400904E02D
:10201000032D04D3BAD1CEF300600028B6D001223C
:1020200040230120636584F83520BDE8F08100007D
:1020300070B590F834C0BCF1010F46D04FF0010CE0
:1020400080F834C0D0F858E090F835C0BCF1010FEA
:1020500038D14FF0020C80F835C04FF0000CC0F8BA
:1020600054C0D0F800C08468056CC06DDCF8006016
:10207000402C26F48026CCF80060CCF804300B46C7
:1020800004BF13460A463F2101FA00F0CCF808309D
:10209000CCF80C20CEF80800DCF8000040F0160068
:1020A000CCF800002DB1DCF8000040F00800CCF8BE
:1020B0000000DCF8000040F00100CCF80000002037
:1020C00070BD00BF002180F83410022070BD0000F8
:1020D000B0B5044600F0FCF8054640F20C00C2F230
:1020E00000000078611C18BF044400BF00F0F0F845
:1020F000401BA042FAD3B0BD2DE9F04F82B000F1F1
:102100003E4241F6004502F1FF77C4F20205082283
:102110004FEAB726A84208BF0722072E38BF4FEA6A
:10212000B7224FF0010A002400274FF00008009268
:1021300008E000BF023708F10108202F04F1040471
:1021400000F0B4800E680AFA08F916EA090FF1D017
:10215000D1F804A00AF0030BABF10106012E17D849
:102160000322866802FA07FECA6826EA0E06BA400B
:10217000324382604268CAF3001522EA090205FA76
:1021800008F54FEA480C6FEA0E062A4342600BE05E
:102190000322BA40D643BBF1030FBC4604D1BC4670
:1021A0004FF0030B22E000BFC2688D68324005FA91
:1021B0000CF52A43BBF1020FC26017D16FF0030286
:1021C00002EA5802024404F01C030F25D2F820E072
:1021D00005FA03FA0D692EEA0A0E05FA03F343EA3B
:1021E0000E031362D1F804A00AF0030B02680BFA85
:1021F0000CF332401A431AF4403F4FF0010A0260D8
:1022000098D0002243F644030192C4F202031A68F4
:1022100043F6004E42F480421A601A68C4F2010E7E
:1022200002F480420192019A28F003024FF6084C12
:102230007244CFF6FF7C52F80C3004F00C060F25E8
:10224000B540AB43009D05FA06F6334342F80C3027
:10225000DEF808204B6842EA090643F60C4CDD0222
:1022600058BF22EA0906CEF80860C4F2010CDCF877
:1022700000209D0242EA090658BF22EA0906CCF86E
:102280000060DEF804209D0342EA090658BF22EAF6
:102290000906CEF80460DEF80020DB0342EA0906F6
:1022A00058BF22EA0906CEF8006043E702B0BDE855
:1022B000F08F0000426902EA0103914341EA0341C1
:1022C00081617047002A08BF0904816170470000DE
:1022D00040F62830C2F200000068704740F20C005F
:1022E00040F62831C2F20000C2F2000100780A680C
:1022F000104408607047000080B543F60040C4F207
:102300000200016841F400710160016841F48061DC
:102310000160016841F480710160032000F084F8DD
:102320000F2000F005F800F027F8002080BD000025
:1023300070B540F20C06C2F2000640F21401327889
:10234000C2F200014FF47A730968B3FBF2F204465B
:10235000B1FBF2F1084600F041FB0F2C4FF00105F4
:1023600008D838B94FF0FF3021460022002500F090
:102370002FF87460284670BD82B0002043F64001FB
:102380000190C4F202014A6842F480424A604A68FD
:1023900002F480420192019A0090086840F0805057
:1023A0000860086800F080500090009802B0704704
:1023B000002848BF704700F01F01012202FA01F116
:1023C0004EF200124009CEF2000242F8201070478F
:1023D00010B54EF60C5CCEF2000CDCF80030C3F306
:1023E000022E8EF00704042C28BF0424BEF1030340
:1023F0004FF0FF3E0EFA04F438BF0023A14399408A
:102400000EFA03F39A43114300F00F02043A6244B8
:1024100009010C3200F16043B0F1FF3FC8BF03F582
:102420006442117010BD00004EF60C51CEF2000156
:102430000A684FF6FF031A4060F30A2242F08060F8
:1024400040F0FD70086070472DE9F041002800F071
:102450008B8043F60808C4F202080446D8F8F80353
:102460000D4600F00700884207D288F8F853D8F8E4
:10247000F80300F00700A84276D12068810717D53D
:10248000410705D5D8F8001041F4E051C8F8001014
:10249000010705D5D8F8001041F46041C8F80010D4
:1024A000D8F80010A26821F0F0011143C8F800101C
:1024B000C0073FD1D8F8F80300F00700A84207D9B9
:1024C00088F8F853D8F8F80300F00700A8424BD179
:1024D0002068410707D5D8F80010E26821F4E051E0
:1024E0001143C8F80010000708D5D8F8000021698A
:1024F00020F4604040EAC100C8F8000000F07CF819
:10250000D8F8001045F2B112C1F30311C0F6000271
:10251000515C40F2140220FA01F140F21000C2F2C4
:1025200000000068C2F200021160FFF701FF002006
:10253000BDE8F0816068811E022907D258F8081CA6
:1025400089015CBF0120BDE8F08111E0012807D1BD
:1025500058F8081C89035CBF0120BDE8F08107E042
:1025600058F8081C890703D40120BDE8F08100BF9A
:10257000D8F8001021F003010843C8F80000FFF765
:10258000A7FE064641F28837D8F80000616800F0DF
:102590000C00B0EB810F8DD0FFF79AFE801BB84284
:1025A000F2D90320BDE8F08140F2140043F608019F
:1025B000C2F20000C4F202010068096845F2C112CB
:1025C000C1F38221C0F60002515CC8407047000090
:1025D00040F2140043F60801C2F20000C4F2020106
:1025E0000068096845F2C112C1F34231C0F6000229
:1025F000515CC8407047000010B543F60404C4F2B3
:102600000204606800F00C0142F200400829C0F2A8
:10261000F40007D0042918BF10BD41F20020C0F219
:102620007A0010BD216801F03F0221682368490249
:10263000C3F3881106D4A1FB00010023FDF744FE7B
:1026400007E000BF41F20020C0F27A004843B0FB2F
:10265000F2F021680222C1F3014102EB4101B0FB1B
:10266000F1F010BD2DE9F04182B000286AD0044697
:10267000007843F60006C007C4F202060BD0B0682B
:1026800000F00C00042840F0A1803068800302D5DF
:102690006068002856D0207880071AD5B06810F0FE
:1026A0000C0F09D0B06800F00C00082840F0A8809A
:1026B0007068400200F1A4803068800702D5E068AD
:1026C00001283FD13068216920F0F80040EAC100BC
:1026D00030602078000739D4207840074ED4A569AF
:1026E0005DB3B06800F00C00082840F0BD80012DFB
:1026F00028D07068E16900F480028A4222D1216A00
:1027000000F03F028A421DD147F6C071626A014063
:10271000B1EB821F16D1A26A0023CFF6FF7303EB41
:10272000C23200F440316FF30F0291420AD1E16AE4
:1027300000F07060B0EB016F04D1002002B0BDE882
:10274000F08100BF012002B0BDE8F081606900287F
:1027500040F20000C4F2472076D00121C0F8801E6C
:10276000FFF7B6FD054600BF706F8007B4D4FFF7D2
:10277000AFFD401B0228F7D9DDE000BF306C10F040
:1027800080580AD100200190306C40F080503064B5
:10279000306C00F080500190019847F20007C4F2BD
:1027A00000073868C00541D4386840F4807038604C
:1027B000FFF78EFD054600BF3868C00536D4FFF729
:1027C00087FD401B0228F7D9B5E000BFB06800F0D4
:1027D0000C00082803D1706840023FF556AF6068CE
:1027E000B0F5803F07D0B0F5A02F40F08D80306865
:1027F00040F480203060306840F4803030608DE0FC
:10280000E068002852D00020C4F247200121016076
:10281000FFF75EFD054600BF306880073FF552AF09
:10282000FFF756FD401B0228F6D984E0A068012876
:1028300005D005284ED1306F40F004003067306F6E
:1028400040F0010030674FE00021C0F8801EFFF724
:102850003FFD0546706F80077FF53EAFFFF738FDFF
:10286000401B0228F6D966E00027C4F24727002063
:102870003866FFF72DFD022D05460BD1306880012B
:102880005ED5FFF725FD401B02284FF00300F5D968
:1028900054E700BF306880017FF54FAFFFF718FDA8
:1028A000401B02284FF00300F4D947E70020C4F290
:1028B000472000210160FFF70BFD054630688007C7
:1028C0007FF507AFFFF704FD401B02284FF0030020
:1028D000F4D933E7316F002821F001013167316FFE
:1028E00021F0040131674DD0FFF7F2FC054641F2BB
:1028F000883700BF306F800756D4FFF7E9FC401BD4
:10290000B842F7D917E000BF3168002821F48031C0
:102910003160316821F4802131604FD0FFF7D8FC5D
:10292000054600BF306880033FF5B5AEFFF7D0FC29
:10293000401B6428F6D9032002B0BDE8F08100BF37
:1029400004F11C052FCD08430021CFF6FF7140EAAA
:10295000821001EBC3316FF30F0140EA05600843B9
:10296000706001203866FFF7B3FC044630688001D0
:102970003FF5E3AEFFF7ACFC001B02284FF003006D
:10298000F4D9DBE6FFF7A4FC054641F2883700BF27
:10299000306F800708D5FFF79BFC401BB8424FF013
:1029A0000300F5D9CAE600BFB8F1000F7FF497AE77
:1029B000306C20F08050306491E600BFFFF788FC57
:1029C000054600BF306880037FF565AEFFF780FCE9
:1029D000401B64284FF00300F4D9AFE6411E0020ED
:1029E000B0EB116F1CBF012070474EF21002CEF207
:1029F000000251604EF62351CEF20001F0230B701D
:102A00000721906011607047B0B590F83C20012A12
:102A100004BF0220B0BD01F108053CCDD1E900CED4
:102A200023F47C5322F470521A432EF4F0431A43D9
:102A30002CF4E0431A4324F4C0431A432A43C969DF
:102A400022F48042036811435964002180F83C104D
:102A50000846B0BD10B590F83C20012A4FF00202A4
:102A600051D080F83D200268D2F804E0D2F808C0C6
:102A70000C682EF07003234341F2FF74C4F200048B
:102A8000A24253600EDC40F2FF73C4F200039A428C
:102A900016DCB2F1804F2BD040F20043C4F20003A9
:102AA00024E000BF40F2FF33C4F201039A4213DC7A
:102AB00041F60003C4F200039A4219D0002313E048
:102AC00040F60003C4F200039A4211D040F60043DE
:102AD000C4F200030AE000BF44F20003C4F20103A1
:102AE0009A4205D040F20043C4F201039A4204D155
:102AF00049682CF08003194391600121002280F87D
:102B00003D1080F83C20104610BD0000002804BF96
:102B10000120704710B5044690F83D0028B9002008
:102B200084F83C00204600F01FF8022084F83D00A5
:102B30002068211D01F0EAFB012084F8460084F89A
:102B40003E0084F83F0084F8400084F8410084F897
:102B5000420084F8430084F8440084F8450084F877
:102B60003D00002010BD000070B582B00446006832
:102B70000021C4F20101884202D002B070BD00BF42
:102B8000002043F644010190C4F202010A6840F6B5
:102B9000282542F001020A600968C2F2000501F02E
:102BA00001010191019946F22841C4F202014FF05E
:102BB000406240234FF4005685E80E0005F10C01F9
:102BC0004FF4806C4FF4006E81E80150C5E9066057
:102BD000C5E908002846FFF779F9002818BFFEF775
:102BE00025FD6562AC6302B070BD000080B590F851
:102BF0003C20012A4FF0020200F0C28080F83D2004
:102C0000D0F800C04FF67772DCF8083023EA0202F1
:102C1000CCF808200B684F2B28DC1F2B44DD202B21
:102C200045D0302B43D0402B40F0AC80D1F804E0AD
:102C3000C968DCF82030DCF8202022F00102CCF852
:102C40002020DCF8182022F0F00242EA011123F0E3
:102C50000A0242EA0E02CCF81810CCF82020DCF868
:102C6000081041F0470121F0300180E06F2B27DD93
:102C7000B3F5005F48D0B3F5805F7AD0702B40F099
:102C80008180D1E901E3C968DCF8082043EA0E033A
:102C900022F47F4243EA01211143CCF80810DCF80A
:102CA000081041F0770162E00BB1102B6AD1DCF81B
:102CB000081021F07001194341F0070157E000BFEF
:102CC000502B35D0602B5DD1D1F804E0C968DCF819
:102CD000203023F01003CCF82030DCF81830DCF87A
:102CE000202023F4704322F0A00243EA013142EA9B
:102CF0000E12CCF81810CCF82020DCF8081041F0A7
:102D0000670121F0100132E0D1E901E3C968DCF884
:102D1000082043EA0E0322F47F4243EA01211143D3
:102D2000CCF80810DCF8081041F480411FE000BF27
:102D3000D1F804E0C968DCF82030DCF8202022F06B
:102D40000102CCF82020DCF8182022F0F00242EA40
:102D5000011123F00A0242EA0E02CCF81810CCF856
:102D60002020DCF8081041F0570121F02001CCF8B8
:102D700008100022012180F83D10002180F83C104D
:102D8000104680BD0122F5E7704700002DE9F041B3
:102D900090F83C30012B04BF0220BDE8F0814FEADF
:102DA000B202032A00F2FC80DFE802F0023E7EBE9F
:102DB000036840F200471A6A43F4806522F001027A
:102DC0001A621C6A1A46D3F804E052F818CF8E68CB
:102DD00024F00204C4F20107BD4244EA060405D10E
:102DE000CE6824F00C0426F0040634430E68BD427D
:102DF00007D1D1E905572EF4407E45EA0E0545EA94
:102E0000070E2CF073073743C3F804E09F614F6847
:102E100009695F631C629F6947F008079F619F69AA
:102E200027F004079F61B1E0036840F200481A6A86
:102E300043F4806522F010021A621C6A1A46D3F825
:102E400004E052F818CF8F6824F02004C4F201087F
:102E5000454544EA071407D1CF686FF0400624F0D7
:102E6000C00406EA071634430F68454507D1D1E987
:102E700005562EF4406E4EEA850545EA860E2CF482
:102E8000E64646EA0727C3F804E09F614F680969F0
:102E90009F631C629F6947F400679F619F6927F4E5
:102EA00080679F6171E000BF036840F200481A6AC2
:102EB00043F4806522F480721A621C6A1A46D3F8C1
:102EC00004E052F81CCF8F6824F40074C4F20108A7
:102ED000454544EA072408D1CF6840F2FF463F0247
:102EE00024F4406427EA060634430F68454507D1B9
:102EF000D1E905562EF4405E4EEA051545EA061E58
:102F00002CF073063743C3F804E0DF614F680969AA
:102F1000DF631C62DF6947F00807DF61DF6927F0C4
:102F20000407DF6132E000BF036840F200451A6A1F
:102F300043F4806722F480521A621A46D3F820C004
:102F40005C6852F81CEFD1F800808E68C4F201056D
:102F5000AF4204D14D6924F4804444EA85142CF432
:102F6000005747EA06372EF4E64646EA08265C6034
:102F7000DE614E6809691E641F62DF6947F40067FD
:102F8000DF61DF6927F48067DF6109021368194395
:102F900011600021002280F83C200846BDE8F08145
:102FA0000121002280F83C200846BDE8F0810000A5
:102FB000002804BF0120704710B5044690F83D007A
:102FC00028B9002084F83C00204600F01FF80220B9
:102FD00084F83D002068211D01F098F9012084F853
:102FE000460084F83E0084F83F0084F8400084F8EE
:102FF000410084F8420084F8430084F8440084F8D7
:10300000450084F83D00002010BD0000704700001E
:1030100040F68820C2F200000268002300215363BA
:1030200000F042B970470000B0B50C46054649B102
:10303000082C13D0042C14BF05F1410005F13F000A
:103040000EE000BF95F83E00022804BF0220B0BD8C
:1030500005F13E00007801281BD118E005F1400081
:103060000078022804BF0220B0BD082C0AD0042C2E
:1030700014BF05F1410005F13F000078012808D197
:1030800005E000BF05F140000078012801D11AB920
:1030900013B10120B0BD00BF02206CB1082C13D0C9
:1030A000042C14BF85F8410085F83F004FEAB400B6
:1030B00003280FD9EDE700BF85F83E004FEAB400C2
:1030C000032807D9E5E700BF85F840004FEAB400C0
:1030D0000328DED8DFE800F002224264686A44F286
:1030E0004941C0F60001C163686A44F2B541C0F6C7
:1030F00000010164686A44F2ED41D5F800C0C0F6F1
:103100000001C164686A0CF1340C11466246FEF796
:103110008FFF0028BDD14FF4007161E0A86A44F22E
:103120004941C0F60001C163A86A44F2B541C0F646
:1031300000010164A86A44F2ED41D5F800C0C0F670
:103140000001C164A86A0CF1380C11466246FEF712
:103150006FFF00289DD14FF4806141E0E86A44F29E
:103160004941C0F60001C163E86A44F2B541C0F6C6
:1031700000010164E86A44F2ED41D5F800C0C0F6F0
:103180000001C164E86A0CF13C0C11466246FEF78E
:103190004FFF00287FF47DAF4FF4006120E000BFB7
:1031A000286B44F24941C0F60001C163286B44F228
:1031B000B541C0F600010164286B44F2ED41D5F839
:1031C00000C0C0F60001C164286B0CF1400C114630
:1031D0006246FEF72DFF00287FF45BAF4FF480516D
:1031E0002868C2681143C16004F01F010122036A0C
:1031F00002FA01F123EA01020262026A114341F27A
:10320000FF72C4F20002904201620BDC40F2FF71D7
:10321000C4F20001884213DCB0F1804F36D040F296
:10322000004115E040F2FF31C4F20101884215DC93
:1032300041F60001C4F20001884227D0002115E0C8
:1032400040F60001C4F2000188421FD040F6004160
:10325000C4F20001884219D01FE000BF44F200010F
:10326000C4F20101884211D040F20041C4F20101D0
:10327000884212D1416C40F2004340F48062C4F2B3
:10328000010341F400419A42416406D1816801F092
:103290000701062904BF0020B0BD016841F001010B
:1032A00001600020B0BD0000B0B50D464FEAB1018D
:1032B00003290DD80446DFE801F0030D151D00BFFA
:1032C000204650F8241BCA6822F4007218E000BFA0
:1032D0000120B0BD204650F8281BCA6822F4806245
:1032E0000EE000BF204650F82C1BCA6822F4006292
:1032F00006E000BF204650F8301BCA6822F4805216
:10330000CA600068FEF7F0FC206805F01F0101228A
:10331000036A02FA01F123EA0101016240F200436B
:10332000016A40F48062C4F201039A42016209D149
:10333000016A41F21112114204D1016A40F2444281
:1033400011420FD0016A41F21112114213D1016AE8
:1033500040F2444211420ED1016821F001010160A6
:1033600009E000BF416C21F400414164016A41F26F
:1033700011121142EBD00120082D09D0042D0BD0E1
:10338000002D14BF84F8410084F83E000020B0BD39
:1033900084F840000020B0BD84F83F000020B0BD9C
:1033A000704700007047000090F83D1090F83E0014
:1033B0000843C0B270470000B0B582B00446006850
:1033C0000168C368426901F02F05202D03F0200534
:1033D00006D12DB1204602B0BDE8B04001F0BCB826
:1033E0005FEA017C1EBF02F0010E03F4907212EB43
:1033F0000E0255D1226B012A05D111F0100218BF1F
:1034000013F0100236D10A0622D513F080021FD025
:1034100094F83D10212941D1A168B1F5805F03D115
:103420002169002900F06C82216A4A1C2262097815
:103430004160E18C01390A04E1842FD1C16821F097
:103440008001C160C16841F04001C16002B0B0BDFF
:10345000490623D513F0400120D0C16821F0400176
:10346000C1602021204684F83D1002B0BDE8B04084
:1034700000F04CBD0021019101680191416801916A
:1034800001994169490600F18B80A18DE28DE38DA0
:10349000002B1CBF891A5FEA01420CD102B0B0BDFB
:1034A000CA0718BF13F4807240F032814A0700F156
:1034B00035813AE1206850E8030F226820F49070CB
:1034C00042E80303DBB1206850E8030F226820F4D0
:1034D000907042E8030393B1206850E8030F22681C
:1034E00020F4907042E803034BB1206850E8030FCA
:1034F000226820F4907042E80303002BDAD12068A0
:1035000050E8050F226820F0010042E80503DBB116
:10351000206850E8050F226820F0010042E805030A
:1035200093B1206850E8050F226820F0010042E8BE
:1035300005034BB1206850E8050F226820F0010018
:1035400042E80503002BDAD1202084F83E00002059
:103550002063206850E8030F226820F0100042E842
:103560000303DBB1206850E8030F226820F010004D
:1035700042E8030393B1206850E8030F226820F06B
:10358000100042E803034BB1206850E8030F2268A3
:1035900020F0100042E80303002BDAD189B2B0E03A
:1035A000A26B11684B689DB2002D3FF477AFA18DDF
:1035B0008D42BFF473AFE385D269B2F5807F00F02E
:1035C0009D8050E8030F216820F4807041E80302D9
:1035D000E2B1206850E8030F216820F4807041E8D0
:1035E00003029AB1206850E8030F216820F480702C
:1035F00041E8030252B1206850E8030F216820F42B
:10360000807041E803020AB12068DAE7206850E8D8
:10361000050F216820F0010041E80502DAB12068B9
:1036200050E8050F216820F0010041E8050292B141
:10363000206850E8050F216820F0010041E80502EC
:103640004AB1206850E8050F216820F0010041E8E8
:103650000502002ADAD1206850E8050F216820F021
:10366000400041E80502DAB1206850E8050F216802
:1036700020F0400041E8050292B1206850E8050FB3
:10368000216820F0400041E805024AB1206850E876
:10369000050F216820F0400041E80502002ADAD138
:1036A000202084F83E0000202063206850E8030FAB
:1036B000216820F0100041E80302DAB1206850E8E8
:1036C000030F216820F0100041E8030292B1206846
:1036D00050E8030F216820F0100041E803024AB1CE
:1036E000206850E8030F216820F0100041E8030231
:1036F000002ADAD1A06BFEF7ADFAA18DE08D081A91
:1037000081B2204602B0BDE8B040FFF749BE00BF1D
:10371000226C42F0010222644A0706D5BEF1000F76
:1037200003D0226C42F0020222648A0706D5BEF161
:10373000000F03D0226C42F004022264BCF1000F9F
:1037400006D555EA0E0203D0226C42F0080222642C
:10375000226C002A3FF4A2AE11F0200118BF002D08
:1037600003D0204600F0F8FE20684169226C01F089
:10377000400102F00802891800F0A28050E8030F0F
:10378000216820F4907041E80302C2B3206850E839
:10379000030F216820F4907041E803027AB3206897
:1037A00050E8030F216820F4907041E8030232B31F
:1037B000206850E8030F216820F4907041E803026C
:1037C000EAB12068DAE700BF206850E8050F2168F9
:1037D00020F0010041E80502DAB1206850E8050F49
:1037E000216820F0010041E8050292B1206850E80C
:1037F000050F216820F0010041E805024AB1206868
:1038000050E8050F216820F0010041E80502002A78
:10381000DAD1206B012824D1206850E8030F2168F9
:1038200020F0100041E80302DAB1206850E8030FED
:10383000216820F0100041E8030292B1206850E8AE
:10384000030F216820F0100041E803024AB120680C
:1038500050E8030F216820F0100041E80302002A1D
:10386000DAD1202084F83E000020206320684169DE
:1038700049063FD550E8050F216820F0400041E897
:1038800005022AB3206850E8050F216820F04000A7
:1038900041E80502E2B1206850E8050F216820F0F8
:1038A000400041E805029AB1206850E8050F216800
:1038B00020F0400041E8050252B12068DAE700BF7D
:1038C0002046FFF76FFD0020206402B0B0BD00BFAE
:1038D000A06B78B144F24D51C0F600010165FEF7CE
:1038E00003FA00283FF4DAADA06B016D02B0BDE829
:1038F000B0400847204602B0BDE8B040FFF752BDD7
:10390000216A31F8022B6FF35F224260216290E559
:10391000002804BF0120704710B5044690F83D0010
:1039200028B9002084F83C00204600F021F824202B
:1039300084F83D002068C16821F40051C160204630
:1039400000F08AFE2068016921F49041016141691B
:1039500021F02A014161C16841F40051C160002099
:103960002021206484F83D1084F83E1010BD000032
:1039700010B586B0006844F60002C4F200020021CF
:103980009042CDE90411CDE90211019126D041F216
:103990000001C4F20101884254D1002043F63001F5
:1039A0000090C4F202014A69252442F010024A61E3
:1039B0004A6902F010020092009A0090086840F0F4
:1039C00001000860086800F00100009000984FF4C2
:1039D000C06001900020C4F2020020E043F63000F5
:1039E0000091C4F202000269272442F4802202619D
:1039F000026902F480220092009A0091016841F06D
:103A000002010160006800F00200009000984FF48D
:103A1000406001900020C4F2020000F580600221A5
:103A2000029100210391032104910721059101A92D
:103A3000FEF762FB204600210022FEF7C9FC20466B
:103A4000FEF7B6FC06B010BD90F83E30202B0BD12F
:103A500000294FF0010318BF002A01D11846704712
:103A600090F83C30012B01D1022070470023036302
:103A7000816222218285C285036480F83E1002693A
:103A8000016880F83C301AB1C86840F48070C860A2
:103A90004869002340F001004861C86840F02000F8
:103AA000C860184670470000F0B581B044F60006C3
:103AB0000446C4F20006006806F54841884255D124
:103AC00040F2BC17C2F200073878FF2818D1002056
:103AD000387040F2E470C2F200004FF48071FCF7DD
:103AE00051FF40F2781045F22321C2F20000C0F6E7
:103AF00000010A224FF6FF7300F0C8F82DE000BF66
:103B0000FB7840F2E472411CC2F200020A2B3970C9
:103B1000135422D1104410F8010C0D281DD140F689
:103B2000D025CAB2C2F2000540F2E471C2F200012F
:103B300028464FF6FF7300F0A9F800BF2846FFF7AC
:103B400033FC2128FAD00020387040F2E470C2F231
:103B500000004FF48071FCF715FF40F27810F91C5B
:103B6000C2F200000122FFF76FFF2068B0421CBFC5
:103B700001B0F0BD40F2BC15C2F200056878FF2824
:103B800018D10020687040F6E400C2F200004FF443
:103B90008071FCF7F7FE40F6D02045F22321C2F2F7
:103BA0000000C0F600010A224FF6FF7300F06EF825
:103BB0005DE000BF2B7940F6E402411CC2F2000236
:103BC0000A2B6970135452D1104410F8010C0D28BF
:103BD0004DD102294BD040F6E404C2F2000429A1E1
:103BE00020460322FCF74CFE20B12088202801D07B
:103BF000207878B940F6E400C2F200004FF48071FA
:103C0000FCF7C0FE40F6D020291DC2F200000122C0
:103C1000FFF71AFF40F6E404C2F200041AA120469E
:103C2000FCF71CFE88B10120A87040F6E400C2F247
:103C300000004FF48071FCF7A5FE40F6D020291D4E
:103C4000C2F200000122FFF7FFFE20780D280CD100
:103C500060780A2809D142F62D50208040F2C41025
:103C6000C2F200002146FCF737FE0020687040F6E3
:103C7000D020291DC2F20000012201B0BDE8F040B1
:103C8000FFF7E2BE0D0A00004F4B00002DE9F043A4
:103C900081B0044690F83D0020280DD10F46002940
:103CA0004FF0010000F0DD801646002A00F0D980B8
:103CB00094F83C00012803D1022001B0BDE8F08354
:103CC000012084F83C004FF0000921201D46C4F873
:103CD000409084F83D00FEF7FBFAA684E684A168D4
:103CE0000646B1F5805F07D1206900281CBF384621
:103CF0004F46B846074601E04FF0000884F83C9074
:103D0000E18C2068002900F08B8005F101090AE0B0
:103D100047B317F8011B4160E18C0139E184E18C64
:103D2000002900F07D8001680906F1D4B9F1000F87
:103D30000AD0EDB1FEF7CCFA801BA84218D8206853
:103D400001680906F6D5E3E701680906E0D40168D1
:103D500009065CBF01685FEA0161D9D40168090600
:103D6000F2D5D5E738F8021B00276FF35F21D2E7C1
:103D7000206850E8030F216820F4D07041E8030266
:103D8000BAB3206850E8030F216820F4D07041E8EE
:103D9000030272B3206850E8030F216820F4D0704A
:103DA00041E803022AB3206850E8030F216820F499
:103DB000D07041E80302002ADAD11AE0206850E806
:103DC000050F216820F0010041E80502DAB1206802
:103DD00050E8050F216820F0010041E8050292B18A
:103DE000206850E8050F216820F0010041E8050235
:103DF0004AB1206850E8050F216820F0010041E831
:103E00000502002ADAD1202084F83D0084F83E0023
:103E1000002084F83C00032001B0BDE8F08300BF1F
:103E20000168490619D4FDB1691C0DD10168490624
:103E300013D4016849065CBF01685FEA41610CD494
:103E400001684906F2D508E0FEF742FA801BA84255
:103E50000AD8206800684006F6D5202084F83D0086
:103E6000002001B0BDE8F083206850E8030F21680E
:103E700020F4D07041E80302E2B3206850E8030F59
:103E8000216820F4D07041E803029AB3206850E81A
:103E9000030F216820F4D07041E8030252B3206878
:103EA00050E8030F216820F4D07041E80302002A93
:103EB000DAD11FE0206850E8050F216820F00100EA
:103EC00041E80502002A9ED0206850E8050F2168CD
:103ED00020F0010041E80502002A3FF494AF206879
:103EE00050E8050F216820F0010041E80502002A92
:103EF0003FF489AF206850E8050F216820F00100E9
:103F000041E80502002AD5D17DE700007047000096
:103F1000FEE7000010B540F6002046F20041C2F274
:103F20000000C4F2000140F2001415220023C0F288
:103F3000010480E80E0000F10C014FF4403C4FF406
:103F4000001E81E8085084618383FDF737FD002857
:103F500008BF10BDBDE81040FDF768BB80B582B05A
:103F60000020019043F63000C4F2020001680022F4
:103F700041F4800101600068002100F4800001909C
:103F800001983920FEF724FA392002B0BDE88040BC
:103F9000FEF70EBA2DE9F04387B0002743F6300054
:103FA00006970197C4F20200016841F2004541F012
:103FB000200101600168C4F2020501F020010191B5
:103FC000019901970168002241F0800101600168B8
:103FD0004FF4D86601F080010191019901970168C1
:103FE00041F002010160016801F0020101910199B3
:103FF0000197016841F040010160016801F0400152
:10400000019101990197016841F001010160006887
:104010004FF4D86100F00100019001982846FEF7A6
:1040200051F905F5806420464FF4C07100224FF429
:10403000C078FEF747F9029602AE4FF00109284614
:104040003146CDE903970597FEF756F84FF4807097
:10405000CDE90207284631460497FEF74DF8204681
:104060003146CDE90289CDE90477FEF745F807B07E
:10407000BDE8F083B0B59CB0002540F68820C4F2BE
:1040800001050021C2F20000D1221691CDE91411E0
:104090001191CDE90F11CDE90D11CDE90B11CDE94C
:1040A0000911CDE90711CDE90511CDE90311CDE9DC
:1040B0000111C0E90051C0E90212C0E90411816197
:1040C000FEF724FD002818BFFDF7B0FA4FF480502A
:1040D000139040F68820C2F2000013A9FEF786FD77
:1040E000002818BFFDF7A2FA40F68820C2F20000AF
:1040F000FEF75EFF002818BFFDF798FA40F688200B
:104100000024C2F2000010A9CDE91044FEF7A2FC81
:10411000002818BFFDF78AFA6020CDE9090440F6AF
:104120008820C2F2000009A90022CDE90B44CDE9A4
:104130000D440F94FEF72AFE002818BFFDF776FA0B
:1041400040F6882400204FF40051C2F2000405908C
:10415000CDE90300CDE901000691089001A92046B0
:10416000FEF752FC002818BFFDF760FA2068A8424D
:1041700002D01CB0B0BD00BF002043F63001179044
:10418000C4F202010A6842F001020A60096801F003
:104190000101179117994FF4807117910221CDE910
:1041A00018101A9001201B9005F5803017A9FDF713
:1041B000A3FF1CB0B0BD000080B540F2741041F206
:1041C0000001C2F20000C4F2010140F8041F4FF4E4
:1041D000E13100220C23C0E90112C0E90322C0E949
:1041E0000532C261FFF794FB002808BF80BDBDE81F
:1041F0008040FDF71BBA000080B540F6D02044F6A1
:104200000001C2F20000C4F2000100234FF00C0CC8
:104210004FF4165280E80E00C0E90333C0E905C32D
:10422000C361FFF775FB002808BF80BDBDE8804073
:10423000FDF7FCB9FEE70000FEE700007047000054
:1042400070470000FEF74AB8B0B592B0002443F6BC
:104250004000CDE90A44CDE908440594CDE9034482
:10426000CDE901440094C4F202000168022541F046
:1042700080510160006800F080500090009847F283
:1042800000000094C4F20000016841F48041016024
:104290000068A82100F4804000900098012006905A
:1042A0004FF4803007904FF480000D9004200E9062
:1042B000119006A80C95CDE90F15FEF7D3F928B19A
:1042C000EFF3108072B600BFFEE700BF0F20CDE90C
:1042D00001054FF4A05004904FF48050059001A8C0
:1042E00005210394FEF7B0F820B1EFF3108072B609
:1042F000FEE700BF12B0B0BD4EF68850CEF200000F
:10430000016841F4700101607047000010B540F68B
:10431000FF3E0368C4F2000E40F2004C7045C4F248
:10432000010C27DCB0F1804F31D040F20042C4F2E2
:10433000000290422BD040F60002C4F200029042EC
:1043400025D041F6FF72C4F20002904229DC70458C
:104350003CDCB0F1804F5FD040F20042C4F200027A
:10436000904259D040F60002C4F20002904253D06D
:1043700056E000BF40F60042C4F20002904206D070
:10438000604504D00022C4F201029042D9D14A68AB
:1043900023F07003134341F6FF72C4F2000290420F
:1043A000D5DD43F6FF72C4F20102904222DC42F2F4
:1043B0000002C4F2000290422ED00022C4F2010298
:1043C000904229D0604527D02AE000BF40F6004245
:1043D000C4F2000290421FD041F60002C4F2000273
:1043E000904219D041F60042C4F20002904213D02C
:1043F00016E000BF44F20002C4F2010290420BD06A
:1044000044F60002C4F20102904205D044F2004298
:10441000C4F20102904203D1CA6823F440731343EB
:1044200023F080024B69D1F800E08C681A430260E7
:10443000C46240F48062C0F828E0624504BF0969A4
:1044400001630121416110BD10B5846B616A814235
:1044500012D0A16A814217D0E16A81421CD0216B3F
:10446000814220D1C06908210028217704BF0120A2
:1044700084F8410017E000BFC169012000292077BE
:1044800008BF84F83E000EE0C0690221217750B9D0
:10449000012084F83F0006E0C0690421217710B9AB
:1044A000012084F840002046FEF7B2FD002020776E
:1044B00010BD000010B5846B616A81420AD0A16A08
:1044C000814209D0E16A814208D0216B814207D143
:1044D000082004E0012002E0022000E00420207710
:1044E0002046FEF79FFD0020207710BD10B5846B9D
:1044F000616A81420CD0A16A81420FD0E16A814297
:1045000012D0216B814215D0012084F83D0016E0C5
:104510000120207784F83E0011E000BF02202077C0
:10452000012084F83F000AE004202077012084F86D
:10453000400004E008202077012084F84100204654
:10454000FEF722FC0020207710BD0000806B0021C8
:10455000C185C184FEF726BF81B090F83E102229A4
:1045600020D18368B3F5805F08D10169002965D047
:1045700000F128010A6803685B680AE0014651F807
:10458000282F13B90369002BF5D003685B6803F08B
:104590007F0313700A6801320A60C18D01390A0471
:1045A000C18501D001B070470168CA6822F02002BD
:1045B000CA60CA6822F48072CA604A6922F00102A5
:1045C0004A61202280F83E20026B012A40D100225D
:1045D000026300BF51E8031F026821F0100142E8A6
:1045E00003130168DBB151E8031F026821F01001D9
:1045F00042E80313016893B151E8031F026821F0F8
:10460000100142E8031301684BB151E8031F02682F
:1046100021F0100142E803130168002BDAD10A6887
:10462000D20606D5002200920A68009249680091DD
:104630000099818D01B0FEF7B3BE00BF0168826AA8
:1046400049686FF35F2122F8021B8262A5E700BF71
:1046500001B0FFF729BA000010B504460068D4E99C
:1046600002C22369016921F4405111430161626969
:1046700043EA0C01E3691143C268194349F20C6330
:104680009A431143C1604169A26921F4407141F22A
:104690000043114340F48062C4F201039A42416135
:1046A00002D1FDF795FF01E0FDF77EFFE169636848
:1046B0001922B1F5004FA0FB02011FD15A00DB0FF8
:1046C000FBF702FE48F21F51C5F2EB11A0FB0123DC
:1046D0005A096FF0630302FB0300322303EBC000AF
:1046E000A0FB01014FF4F87000EA111000EB02107A
:1046F000C1F3421108442168886010BD9A009B0FE5
:10470000FBF7E2FD48F21F51C5F2EB11A0FB0123BC
:104710005A096FF0630302FB0300322303EB00101E
:10472000A0FB0101F02000EA511000EB0210C1F3E0
:10473000431108442168886010BD000040F27810E1
:10474000C2F20000FEF738BE40F6D020C2F20000F0
:10475000FEF732BEFEE7000048F20401411A0020D5
:1047600011F1030F38BF4FF0FF3070470020704742
:1047700048F20101411A0020032938BF0120704787
:1047800010B518B3044600783A281FD145F2D1116C
:10479000C0F600012046FCF71FF9D8B145F2D81148
:1047A000C0F600012046FCF717F9B8B145F2C9116F
:1047B000C0F600012046FCF70FF901464FF0FF302C
:1047C000002908BF48F2030010BD00BF4FF0FF30C2
:1047D00010BD00BF48F2010010BD00BF48F202004A
:1047E00010BD00004FF0FF307047000048F2030199
:1047F00088420ED048F2020188421CBF4FF0FF30C1
:104800007047002A04BF0020704700BF013A00BE75
:10481000FCD10020704700002DE9F047044640F22B
:10482000C4108946C2F200004FF480711546FCF7AF
:10483000A9F8002D72D040F2BC18C2F2000898F816
:10484000020040F274170128C2F2000760D045F25E
:104850001E200225C0F6000021463D70FBF7ACFD8E
:10486000C820FDF735FC45F207200126C0F6000000
:1048700021463E70FBF7A0FD98F80200012847D0C2
:1048800045F21E20C0F6000021463D70FBF794FD66
:10489000C820FDF71DFC45F20720C0F600002146A8
:1048A0003E70FBF789FD98F80200012830D045F2F0
:1048B0001E200225C0F6000021463D70FBF77CFD5E
:1048C000C820FDF705FC45F207200126C0F60000D0
:1048D00021463E70FBF770FD98F80200012817D0C2
:1048E00045F21E20C0F6000021463D70FBF764FD36
:1048F000C820FDF7EDFB45F20720C0F60000214679
:104900003E70FBF759FD98F80200012840F0BE8088
:10491000012500203D7088F80200ACE045F21E2819
:10492000C0F6000840462146FBF746FD4FF4FA70FA
:10493000FDF7CEFB40F2C417C2F2000738464946E5
:10494000FBF78CFF064640F2741A45F21420C2F2BF
:10495000000A0125C0F6000039468AF80050FBF72E
:104960002BFD38464FF48071FCF70CF802274046C7
:1049700021468AF80070FBF71FFD4FF41670FDF713
:10498000A7FB002E75D140F2C416C2F200063046D5
:104990004946FBF763FF804645F21420C0F600004D
:1049A00031468AF80050FBF707FD30464FF480711E
:1049B000FBF7E8FF45F21E20C0F6000021468AF80A
:1049C0000070FBF7F9FC4FF41670FDF781FBB8F1AE
:1049D000000F4ED140F2C416C2F2000630464946DE
:1049E000FBF73CFF074645F214204FF00108C0F6E4
:1049F000000031468AF80080FBF7DEFC30464FF4B9
:104A00008071FBF7BFFF45F21E200226C0F60000B2
:104A100021468AF80060FBF7CFFC4FF41670FDF7D3
:104A200057FB37BB40F2C417C2F20007384649466D
:104A3000FBF714FF814645F21420C0F6000039460A
:104A40008AF80080FBF7B8FC38464FF48071FBF71A
:104A500099FF45F21E20C0F6000021468AF800604A
:104A6000FBF7AAFC4FF41670FDF732FBB9F1000F0B
:104A700030D08AF8005045F2E810C0F60000214618
:104A8000FBF79AFC2846BDE8F08700BF022038708B
:104A900045F21E20C0F600002146FBF78DFCC82021
:104AA000FDF716FB45F207200125C0F60000214660
:104AB0003D70FBF781FC45F2F610C0F60000214680
:104AC0003D70FBF779FC0025284688F80250BDE8C8
:104AD000F08700BF40F2C41545F21420C2F2000571
:104AE0000126C0F6000029468AF80060FBF764FC46
:104AF00028464FF48071FBF745FF02208AF800003A
:104B000045F21E20C0F600002146FBF755FC4FF48D
:104B10001670FDF7DDFA45F2F610C0F600002146EA
:104B20008AF80060FBF748FC0020BDE8F087000031
:104B300080B582B040F27411C2F20001019011F808
:104B4000042B40F6D020C2F20000012A08BF08461C
:104B500001A901224FF6FF73FFF798F8019802B000
:104B600080BD00002DE9F04FADF50D7D45F26031BF
:104B7000C0F6000152A8EC22FBF7D2FE40F614303A
:104B8000C2F20000017890F802E011914178C578F6
:104B90001091417A90F80FB0067C077990F8058063
:104BA00090F807A090F808900F918479817AC27AE2
:104BB000037B90F80DC0807BCDE908410AA9CDE9BF
:104BC0000DC002A881E80C40CDE9005B80E8C0057B
:104BD00012AD119ADDE90F73284652A9CDF818904D
:104BE0000797FBF7F5FB40F2741645F21E24C2F25C
:104BF00000060120C0F60004307020462946FBF76D
:104C0000DBFB0220307045F23520C0F60000FBF7D8
:104C10000FFE0A20FDF75CFA20462946FBF7CCFB85
:104C20001A20FBF7FFFD0DF50D7DBDE8F08F0000AC
:104C300041F20044C4F20204FDF75EFBFFF704FBFF
:104C4000FFF7A8F9FFF78AF9FFF7B6FAFFF762F95D
:104C5000FFF7D2FAFFF70EFA40F2781040F2BF11D8
:104C6000C2F20000C2F200010122FEF7EDFE40F6A2
:104C7000D02040F2C011C2F20000C2F200010122B5
:104C8000FEF7E2FE20464FF480710122FDF71AFB89
:104C900020464FF400710022FDF714FB20464FF42C
:104CA00080610122FDF70EFB00F016F84FF4FA7058
:104CB000FDF70EFA0C2000F093F84FF4FA70FDF7B0
:104CC00007FAFFF74FFF2046C021FDF7F3FA6420F3
:104CD000FDF7FEF9EAE70000F0B581B0FCF78EFBC6
:104CE00040F2741645F25021C2F20006012745F247
:104CF0009022C0F600013770C0F60002012808BFFC
:104D000011460846FBF794FD45F22F3445F23C303E
:104D1000C0F60004C0F6000021460022FFF77CFD2B
:104D2000054645F2CA20C0F6000021460022FFF7E2
:104D300073FD00EA050445F2F72045F23631C0F66E
:104D40000000C0F600010022FFF766FD04EA000142
:104D500013A005A2012908BF1046377001B0BDE8B5
:104D6000F040FBF765BD00BF2A2A2A2A2A2A2A2AF0
:104D70002A2A2A2A2A2A2A2A2A2A2A2A2A4D51541F
:104D80005420494E4954204F4B2A2A2A2A2A2A2A9B
:104D90002A2A2A2A2A2A2A2A2A2A2A2A2A2A0D00BA
:104DA0002A2A2A2A2A2A2A2A2A2A2A2A2A2A2A2A63
:104DB0002A2A2A2A2A4D51545420496E69742046C1
:104DC00061696C757265212A2A2A2A2A2A2A2A2AC6
:104DD0002A2A2A2A2A2A2A2A2A2A2A2A0D000000CE
:104DE000B0B5002800F0868140F68821C2F20001AB
:104DF000C9684AF6AB220131CAF6AA22A1FB021207
:104E000053084FF0FF3505EB520105EB4302431EFB
:104E100040F2C42C00F0030E032BC2F2000C01D2AE
:104E20000023C9E00CF5AF7400F0FC05002300BFBF
:104E3000043324F8BE1C24F8AE1C24F89E2C24F85D
:104E4000BC1C24F8AC1C24F89C2C24F8BA1C24F8B4
:104E5000AA1C24F89A2C24F8B81C24F8A81C24F8BE
:104E6000982C24F8B61C24F8A61C24F8962C24F8B8
:104E7000B41C24F8A41C24F8942C24F8B21C24F8A4
:104E8000A21C24F8922C24F8B01C24F8A01C24F8AE
:104E9000902C24F88E1C24F87E1C24F86E2C24F808
:104EA0008C1C24F87C1C24F86C2C24F88A1C24F814
:104EB0007A1C24F86A2C24F8881C24F8781C24F81E
:104EC000682C24F8861C24F8761C24F8662C24F818
:104ED000841C24F8741C24F8642C24F8821C24F804
:104EE000721C24F8622C24F8801C24F8701C24F80E
:104EF000602C24F85E1C24F84E1C24F83E2C24F868
:104F00005C1C24F84C1C24F83C2C24F85A1C24F873
:104F10004A1C24F83A2C24F8581C24F8481C24F87D
:104F2000382C24F8561C24F8461C24F8362C24F877
:104F3000541C24F8441C24F8342C24F8521C24F863
:104F4000421C24F8322C24F8501C24F8401C24F86D
:104F5000302C24F82E1C24F81E1C24F80E2C24F8C7
:104F60002C1C24F81C1C24F80C2C24F82A1C24F8D3
:104F70001A1C24F80A2C24F8281C24F8181C24F8DD
:104F8000082C24F8261C24F8161C24F8062C24F8D7
:104F9000241C24F8141C24F8042C24F8221C24F8C3
:104FA000121C24F8022C24F8201C24F8101C9D420A
:104FB00024F8C02B7FF43CAFBEF1000F00F09A80C4
:104FC00003EB43030CEB0313BEF1010FA3F8A01096
:104FD000A3F8B010A3F8C020A3F8A210A3F8B21051
:104FE000A3F8C220A3F8A410A3F8B410A3F8C42017
:104FF000A3F8A610A3F8B610A3F8C620A3F8A8102B
:10500000A3F8B810A3F8C820A3F8AA10A3F8BA1000
:10501000A3F8CA20A3F8AC10A3F8BC10A3F8CC20C6
:10502000A3F8AE10A3F8BE10A3F8CE2062D0BEF154
:10503000020FA3F8D010A3F8E010A3F8F020A3F813
:10504000D210A3F8E210A3F8F220A3F8D410A3F82A
:10505000E410A3F8F420A3F8D610A3F8E610A3F800
:10506000F620A3F8D810A3F8E810A3F8F820A3F8C6
:10507000DA10A3F8EA10A3F8FA20A3F8DC10A3F8DA
:10508000EC10A3F8FC20A3F8DE10A3F8EE10A3F8B0
:10509000FE202FD0A3F80011A3F81011A3F82021AF
:1050A000A3F80211A3F81211A3F82221A3F8041106
:1050B000A3F81411A3F82421A3F80611A3F81611DC
:1050C000A3F82621A3F80811A3F81811A3F82821A2
:1050D000A3F80A11A3F81A11A3F82A21A3F80C11B6
:1050E000A3F81C11A3F82C21A3F80E11A3F81E118C
:1050F000A3F82E2100EB4000502101EBC00340F645
:10510000882040F2C422C2F20000C2F20002002154
:10511000BDE8B040FDF788BF30380A2801D2012031
:10512000704700207047000010B500290AD00878A9
:10513000002807D005487844FBF74EFC002801D032
:10514000002010BD0248784410BD00003603000066
:105150002E030000F1EE100A4FF6FF71C0F2C031CD
:1051600020EA010040F04070E1EE100A70470000B4
:105170000000000000000000303132333435363793
:10518000383941424344454640305800303132338B
:10519000343536373839616263646566403078008B
:1051A00004000008000000000000000200010000F0
:1051B00010000000000000000001020304060708C0
:1051C0000900000000010203043A535444455252BE
:1051D000003A535444494E003A5354444F555400F6
:1051E0000006101600061016257320696E697420DB
:1051F0004F4B200D0A00257320696E6974204552BB
:10520000524F52200D0A0073656E64696E67202547
:10521000730D0A00427566666572206973202573F6
:105220000D0A00737461636B204F76657220466CC3
:105230006F770D0A0041542B514D545055423D306B
:105240002C302C302C312C2268656C6C6F220D00B8
:105250002A2A2A2A2A2A2A2A2A2A2A2A2A2A2A2AAE
:105260002A2A2A2A2A42433236305920496E697442
:10527000204661696C757265212A2A2A2A2A2A2AFF
:105280002A2A2A2A2A2A2A2A2A2A2A2A2A2A0D00C5
:105290002A2A2A2A2A2A2A2A2A2A2A2A2A2A2A2A6E
:1052A0002A2A2A2A2A42433236305920494E495462
:1052B000204F4B2A2A2A2A2A2A2A2A2A2A2A2A2A12
:1052C0002A2A2A2A2A2A2A2A0D0041542B514D54CF
:1052D000434F4E4E3D302C22424332363059222C21
:1052E000226C696E6779756E222C226C696E677903
:1052F000756E363636220041542B514D545055426E
:105300003D302C302C302C312C2268656C6C6F2297
:105310002C31312C2268656C6C6F20776F726C6455
:10532000220041542B5153434C4B203D2030004E22
:105330003A20302C3000302C302C300041542B518E
:105340004D544F50454E3D302C2238322E3135369B
:105350002E3230372E313032222C313838330000A3
:105360007B22635370656564223A2025642C2250A9
:105370006F73223A2025642C2262416C61726D2287
:105380003A2025642C226C6D5370656564223A20A6
:1053900025642C22726D5370656564223A20256461
:1053A0002C226254656D70223A2025642C22624CB6
:1053B0006576656C223A2025642C22674D6F646502
:1053C000223A2025642C22634D6F6465223A202501
:1053D000642C2274696D65436F756E74223A2025C2
:1053E000642C22626174566F6C223A2025642C2250
:1053F000636172446973746365223A2025642C22C8
:105400006D63753154656D70223A2025642C226DD0
:1054100063753254656D70223A2025642C226272C5
:10542000616B6554726176656C223A2025642C228A
:105430006C6D6F54656D70223A2025642C22726D5C
:105440006F54656D70223A2025647D0080550008F8
:105450000000002018000000C40100089855000852
:105460001800002018110000E001000810010000E1
:1054700043000000F8FFFFFF004040404040404034
:105480004040414141414140404040404040404017
:1054900040404040404040404005020202020202BB
:1054A000020202020202020202202020202020200A
:1054B000202020020202020202029090909090901E
:1054C00010101010101010101010101010101010DC
:1054D0001010101002020202020288888888888850
:1054E000080808080808080808080808080808083C
:1054F0000808080802020202400000000000000044
:10550000000000000000000000000000000000009B
:10551000000000000000000000000000000000008B
:10552000000000000000000000000000000000007B
:10553000000000000000000000000000000000006B
:10554000000000000000000000000000000000005B
:10555000000000000000000000000000000000004B
:10556000000000000000000000000000000000003B
:10557000000000000000000000000000000000002B
:10558000000000000000000000000000010000001A
:08559000100000000024F400EB
:040000050800018965
:00000001FF
