:020000040800F2
:10000000300C0020890200080D3E0008E53A000887
:10001000093E000859130008714200080000000062
:10002000000000000000000000000000193E000871
:100030008514000800000000153E00081D3E000861
:10004000A3020008A3020008A3020008A3020008FC
:10005000A3020008A3020008A3020008A3020008EC
:10006000A3020008A3020008A3020008A3020008DC
:10007000A3020008A3020008A3020008A3020008CC
:10008000A3020008A3020008A3020008A3020008BC
:100090005D130008A3020008A3020008A3020008E1
:1000A000A3020008A3020008A3020008A30200089C
:1000B000A3020008A3020008A3020008A30200088C
:1000C000A3020008A3020008A3020008A30200087C
:1000D000A302000859420008A30200086542000874
:1000E000A3020008A3020008A3020008A30200085C
:1000F000A3020008A3020008A3020008A30200084C
:10010000A3020008A3020008A3020008A30200083B
:10011000A3020008A3020008A3020008A30200082B
:10012000A302000879140008A3020008A302000833
:10013000A3020008A3020008A3020008A30200080B
:10014000A3020008A3020008A3020008A3020008FB
:10015000A3020008A3020008A3020008A3020008EB
:10016000A3020008A3020008A3020008A3020008DB
:10017000A3020008A3020008A30200080000000078
:10018000A3020008A302000800F002F800F06CF8D7
:100190000AA090E8000C82448344AAF10107DA45E2
:1001A00001D100F061F8AFF2090EBAE80F0013F0C8
:1001B000010F18BFFB1A43F0010318475C4F000002
:1001C0007C4F0000103A24BF78C878C1FAD8520793
:1001D00024BF30C830C144BF04680C6070470000C1
:1001E0000023002400250026103A28BF78C1FBD840
:1001F000520728BF30C148BF0B607047692900F023
:100200004981642900F04681752900F043816F29F6
:1002100000F0DA81782900F001820368DB0928BF49
:1002200041F08001632900F04784732900F04C8479
:10023000E32900F06984002070471FB504F0C4FE74
:100240009DE8030000F07AFE00F05CFD0400002051
:10025000002104F073FA401C606000F091FC1FBDA7
:1002600010B500F0F6FC10BD00F026FD1146FFF7BA
:10027000E4FF04F013FA00F031FE03B4FFF7F0FFDF
:1002800003BC00F0CDFF0000094880470948004743
:10029000FEE7FEE7FEE7FEE7FEE7FEE7FEE7FEE736
:1002A000FEE7FEE704480549054A064B7047000093
:1002B000193F00088901000830060020300C00209A
:1002C000300800203008002053EA020C00F069805A
:1002D0002DE9F04B4FF00006002B1FBFB3FA83F55A
:1002E00003FA05F424FA05F65E4012BF1643B2FA8B
:1002F00082F502FA05F4C5F120051EBF22FA05FCBD
:1003000044EA0C04203556EA044C4FEA144418BF62
:10031000641C4FF000084FF00009904271EB030C91
:1003200039D3002919BFB1FA81F701FA07F6B0FAFB
:1003300080F700FA07F6C7F120071EBF20FA07FC76
:1003400046EA0C062037B6FBF4FCA7EB0507103F86
:1003500007F01F0BCBF120062CFA06F60CFA0BFB6C
:1003600044BFB3460026202FA4BF5E464FF0000BCB
:100370005BEA060C08BF4FF0010B19EB0B0948EBC9
:100380000608ABFB027C06FB02CC0BFB03CCC01BBC
:1003900071EB0C01C1E70B46024641464846BDE8F9
:1003A000F08B13B5084318BF4FF0FF300146AFF391
:1003B0000080BDE81C4070470FB4044910B503AA83
:1003C000029800F085FB10BC5DF814FB740000205F
:1003D00070B5044685690068C10601D5302600E085
:1003E0002026C00707D070BDD4E9012130469047D0
:1003F000206A401C20626D1EF6D570BD70B50446A3
:1004000085690078C00707D170BDD4E9012120209B
:100410009047206A401C20626D1EF6D570BD0968A9
:100420004A0501D540B27047C905FCD500B27047F6
:1004300009684A0501D5C0B27047C905FCD580B22C
:10044000704770B50C460546012A05D0287880060D
:1004500000D5EA69002302E0012305E05B1C93421A
:1004600002D2E05C0028F9D1A869E618C01AA86198
:10047000286A184428622846FFF7AAFF04E0D5E955
:10048000012114F8010B9047B442F8D32846FFF736
:10049000B5FF70BD2DE9F0410646002410687529AE
:1004A000314616A510D0FFF7BAFF002802DA404205
:1004B00013A507E031688A0701D512A502E04907B4
:1004C00004D511A5012401E0FFF7B2FF00210A22A3
:1004D00006F1240709E0B0FBF2FCB0FBF2F302FBEB
:1004E0001C00303078541846491C0028F3D12346AC
:1004F0002A463046BDE8F04100F063BA0000000033
:100500002D0000002B000000200000002DE9FF5FFF
:1005100015468A460446DFF8AC80F8440027D8E93F
:1005200000103E46CDE9001010E03AF816106A4679
:1005300002A800F0F5FA411C07D02178890603D5FE
:10054000E269391891420DD80744761C207880065C
:1005500002D5E069B84205DDAE42E6DB3AF81600A6
:100560000028E2D1A069C01BA0612046FFF730FF40
:10057000D8E90010CDE90010002017E03AF8181073
:100580006A4602A800F0CCFAB0F1FF3F81460BD0DA
:1005900000250DF1080B05E0D4E901211BF8050049
:1005A00090476D1C4D45F7D308F10100B0428046DD
:1005B000E4DB206A384420622046FFF71FFFBDE8D5
:1005C000FF9F0000C64A000070B50446214610682F
:1005D000FFF72EFF002104F1240505E000F00702DB
:1005E0003032C0086A54491C0028F7D12068002323
:1005F00008A2050708D500F02000084304D0E069F0
:10060000012305A2401EE0612046BDE8704000F0D5
:10061000D8B90000000000003000000070B50446AA
:100620000D4621461068FFF703FF2188090502D512
:100630000F4A7A4402E00E4A7A440E32002104F155
:10064000240305E000F00F060009965D5E54491C86
:100650000028F7D120780023000704D5702D02D0A0
:1006600009B1022311322046BDE8704000F0A9B95B
:10067000B64900002DE9F05F894604464FF0000AB4
:10068000DFF874B1FB44C0F820A02046E168884739
:10069000002874D0252806D0D4E901219047206A8B
:1006A000401C2062F1E700265F462046E16888474B
:1006B0002028054607DB312D05D2781910F8200CCB
:1006C00008B10643F1E7B00701D526F00406C4F8E7
:1006D0001CA00027C4F818A02A2D09D0284604F031
:1006E00025F838B304EB8708303DC8F8185019E0F6
:1006F00059F8041B204604EB87029161E1688847A2
:10070000012F054618D1E069002820DA26F02006DE
:100710001DE0D8F8180000EB800005EB40003038F1
:10072000C8F818002046E1688847054603F0FEFF38
:100730000028EED1012F0AD02E2D08D12046E168E5
:1007400088477F1C0546022F46F02006C4DBA069BF
:10075000002803DA404246F00106A061F00701D00C
:1007600026F010066C2D0BD0682D09D04C2D39D0F9
:100770006A2D35D0742D35D07A2D33D016E038E07F
:10078000E1682F4620468847B842054609D16C2FBC
:1007900026D04FF48060E16806432046884705462E
:1007A00004E06C2F1AD04FF4807006430DB3A5F10E
:1007B0004100192802D8203546F400664A462946E9
:1007C000204626604E46FFF719FD80B101280BD068
:1007D000F61D26F0070000F1080956E74020E4E77F
:1007E0008020D8E70020D6E706F104094DE7284627
:1007F00052E7206ABDE8F09F8C49000010B504461E
:1008000003E003F031FF401C09D014F8010B054947
:100810000028F6D1BDE810400A2003F025BF4FF0B4
:10082000FF3010BD7400002030B505460B462A4647
:1008300013F8014B12F8010B08B1A042F8D01CB11B
:10084000002802D06D1CF1E7284630BD40EA0103C4
:1008500010B59B070FD1042A0DD310C808C9121F69
:100860009C42F8D020BA19BA884201D9012010BDA3
:100870004FF0FF3010BD1AB1D30703D0521C07E070
:10088000002010BD10F8013B11F8014B1B1B07D1D4
:1008900010F8013B11F8014B1B1B01D1921EF1D145
:1008A000184610BD40EA0103024630B59B0710D13F
:1008B0004FF0013400E008C208C91D1B9D4315EA32
:1008C000C41FF8D013F0FF0102F8011B0DD01B0A62
:1008D000F8E711F8013B002B02F8013B05D011F8B5
:1008E000013B002B02F8013BF3D130BD4FF0000279
:1008F00000B5134694469646203922BFA0E80C5016
:10090000A0E80C50B1F12001BFF4F7AF090728BFF0
:10091000A0E80C5048BF0CC05DF804EB890028BF6C
:1009200040F8042B08BF704748BF20F8022B11F095
:10093000804F18BF00F8012B704700000000000036
:1009400030B44FF0013C50F8042B51F8043BCCFA82
:1009500052F4D51A20D1FCB950F8042B51F8043BBD
:10096000CCFA52F4D51A17D1B4B950F8042B51F877
:10097000043BCCFA52F4D51A0ED16CB950F8042BC2
:1009800051F8043BCCFA52F4D51A05D1002CDAD038
:1009900030BC4FF00000704729BAB1FA81F111F074
:1009A0001801D1F120008440F2D1CA40CB4012F0AE
:1009B000FF0213F0FF0330BCD01A70477047704736
:1009C00070472DE9F0470D4699469246044600F1DE
:1009D00024080168880604D5E06921F0100121602F
:1009E00000E00120A84201DD471B00E00027A169CB
:1009F0007A1902EB0900081AA0612078C00602D417
:100A00002046FFF7E5FC002608E0D4E901211AF8AA
:100A100006009047206A401C761C20624E45F4DB9D
:100A20002078C0060AD52046FFF7D2FC06E0D4E9BC
:100A3000012130209047206A401C2062381EA7F117
:100A40000107F4DC07E0D4E9012118F8050090471C
:100A5000206A401C2062281EA5F10105F3DC204617
:100A6000FFF7CCFC2078000602D50220BDE8F08715
:100A70000120FBE701694A1C02610878704700B554
:100A80008FB0CDE901310021059105497944CDE9C7
:100A9000031011466846FFF7EDFD0FB000BD0000E2
:100AA000E5FFFFFF10B5436913B1AFF3008001E02C
:100AB000FFF7C7FC012010BD127800F124010A7075
:100AC00000224A700122EDE711684FF0FF32E9E79A
:100AD000074B70B50D467B44FFF7D1FF044628460F
:100AE00000F04AF810B14FF0FF3070BD204670BDE5
:100AF0008F3B000010B5436913B1AFF3008001E0F4
:100B0000FFF704FD012010BD128800F1240182844A
:100B10000022C2840122EDE711684FF0FF32E9E7BD
:100B20002DE9F04116460C46054600F01DF8036815
:100B300093F80101012807D0FF2C12D8185D80B16D
:100B400001202C70BDE8F081D3F807013246214620
:100B500003F20713C7182846BC46BDE8F04100233E
:100B600060474FF0FF30EDE710B500F0CBF8001D07
:100B700010BD00BFC93B0000007B00F08000704743
:100B800010B542485421FFF7B1FE41485421FFF708
:100B9000ADFE40485421FFF7A9FE3F493B483C4A7F
:100BA0003F4B08603D490A603A491960531C036590
:100BB000481C1065012008653B48344A39A1784437
:100BC00000F0EEF820B9384878440A3800F08FF980
:100BD00037482F4A35A1784400F0E2F820B934486C
:100BE00078440A3800F083F932482A4A2FA1784421
:100BF00000F0D6F820B92F4878440A3800F077F989
:100C000040232248DC000021224600F0A6F820B153
:100C100025487844543800F06AF91D48224640239C
:100C2000002100F09AF820B121487844543800F0AF
:100C30005EF9184822461023002100F08EF80028A3
:100C400006D01C487844BDE81040563800F04FB933
:100C500010BD104870B5006D20F001040B4800F085
:100C600017F90B4800F014F90A4800F011F909E0EF
:100C7000206D20F00105204600F00AF9204600F022
:100C800045F82C46002CF3D170BD00002000002058
:100C900074000020C8000020000000200400002094
:100CA000080000207200000083440000770000006C
:100CB000724400004B440000754600F01FF9AE4638
:100CC00005006946534620F00700854618B020B558
:100CD000FFF7E8FABDE820404FF000064FF00007AC
:100CE0004FF000084FF0000BAC46ACE8C009ACE890
:100CF000C009ACE8C009ACE8C00921F007018D4685
:100D000070470000004870473C01002070B5044661
:100D1000051F00F0F7F80068002C14BF446870BD90
:100D2000002C18BFAC423CBF20466468F8D3016871
:100D30000A18AA4218BF456003D12A680546114423
:100D4000016028684119A1421CBF6C6070BD6168D8
:100D5000696021680844286070BD70B5C468A50743
:100D600013D0650211D4B2F5807F09D0B2F5007FAF
:100D700006D0B2F5806F08D1012300F1240106E00E
:100D80005D1E6FF07F46B54201D3012070BD016149
:100D9000C361416024F470611143C160002070BDE3
:100DA0002DE9F0410C461646070047D0104600F0EA
:100DB0006FF82078611C61280AD0722802D0772849
:100DC0003CD102E00125002405E00225042402E0D4
:100DD000082448F2020511F8010B2B2806D06228DE
:100DE00009D011F8010C74280AD00BE045F0030576
:100DF00044F00204EFE745F0040544F00104EAE79B
:100E000044F010043846214603F048FA411C15D03E
:100E10000021316171604FF40071F560F161706122
:100E2000200704D530460222002100F0E5F8306D9D
:100E300040F0010030653046BDE8F0810020FBE75E
:100E40002DE9F0410D460646104C206DC10704D037
:100E5000410804D020F00104F7E722460EE05420B8
:100E600000F09BF807000ED0206D47F00101084309
:100E7000542120653846FFF739FD3A462946304669
:100E8000BDE8F0418CE70020D6E7000020000020FC
:100E90002DE9F04704464FF000094FF0FF37C568D1
:100EA000D4E90486A80707D0204600F055F930465B
:100EB00003F0E0F9002802DA3846BDE8F08728059B
:100EC00002D54046FFF722FF4C212046FFF70EFDDA
:100ED000206D20F0010020654846EEE710B504467D
:100EE000AFF300802046BDE81040FFF7C6B910B54B
:100EF00000F07CF9BDE8104000F072B9004870477E
:100F00001C010020004870472401002070477047F2
:100F10007047704738B504460A4600206946AFF36B
:100F20000080002808BF38BD02460099204600F026
:100F300084F9012038BD012000F0D3B9F8B5AFF332
:100F40000080054600200C46102000BF0646A81968
:100F5000A0420DD9324669460020AFF30080070059
:100F600008BF00F0BEF90098A04218BF0546C4199A
:100F7000FFF7C8FF05600746F01D20F0070046197F
:100F8000284600F053F9B44208BFF8BDA21B314611
:100F90003868BDE8F84000F050B970B50646FFF774
:100FA000B1FF056806F10B0020F00704B4429CBFB6
:100FB000002070BD2B466A68BAB11068A04210D3F9
:100FC00004F1080188423CBF5068586007D351685B
:100FD000101941601168091B016058601460101DF0
:100FE00070BD13465268002AE7D121462846FFF714
:100FF00091FF0028DED170BD2DE9F0410446164670
:101000000D464769007B80072ED0384603F03EF935
:1010100050BB3EB3012E02D0022E25D104E0204663
:1010200000F025F905441DE0384603F02DF9E1688C
:10103000002841F01001E16005DA204600F058F880
:101040000120BDE8F081C9030BD56268E16A9142D5
:1010500000D81146A26911442269891A814200DD33
:1010600008460544002D01DA0220EAE7E16A6068DB
:10107000E268814206D29103E06203D522F4003196
:1010800041F01002A6690027AE4213DCE16A8142FA
:1010900001D90B4600E0034603EB060C2369ACEBD9
:1010A000030CAC4506DD814201D98C4600E0844644
:1010B0009C4505D1A760276042F02000A5620DE0A5
:1010C000AD1BE669AE1B8142A66000D90846C01A76
:1010D000281A20605819606022F020000349084057
:1010E000E060002084F84870ABE70000BFCFD7FF76
:1010F000C16821F4001141F08001C16000218160CC
:10110000016070472DE9F047814614460E464FF0C6
:10111000FF383248D5685769054209D03846A16979
:1011200003F0EEF8002811DB2C48C0430540E560D1
:101130002B4632464946384603F0E6F8A16920F0CE
:101140000042B21A11440028A16103D02046FFF7E3
:10115000CFFF4046BDE8F08770B504460569C06A18
:101160006168884200D80846E16821F42011E160F6
:10117000C90312D5A84208D02246411B2846FFF7D2
:10118000C1FF10B14FF0FF3070BD0020E562C4E92F
:101190000150E06820F48030E060002070BD10B5A0
:1011A0000446C06820F02000E060A16AA06988427F
:1011B0000DD02046FFF7D0FFE06820F4405040F00B
:1011C0001000E060A06AA0612069E062606044F203
:1011D0004001E0688843E06010BD0000100002009C
:1011E000002801D000F01CB87047000010B501467F
:1011F00002A000F05DF8012010BD000053494752E5
:10120000545245443A2052656469726563743A20C9
:1012100063616E2774206F70656E3A2000000000D5
:1012200001491820ABBEFEE7260002000021016044
:10123000C0E90110704710207047034640688C4693
:10124000002818BF88423CBF03464068F8D318689E
:101250001844884207D00CF1030020F00700001D5D
:10126000411A521A0146081D0A60FFF74FBD10B51A
:101270000146C268900703D0900607D5886A0AE045
:1012800000F03EF801210160881E10BD8B6948689E
:1012900018440B69C01A91F848301BB191F84910F5
:1012A000401A10BD1103FCD50028FADD401E10BD08
:1012B00070B505460C460A2000E06D1C00F018F8D9
:1012C00035B128780028F8D102E0641C00F010F84D
:1012D00014B120780028F8D1BDE870400A2000F051
:1012E00007B810B500F010F8BDE81040FFF778BF60
:1012F00008B569468DF800000320ABBE08BD7047F5
:10130000004870471C01002010B5012805D00021BD
:1013100003A0FFF7CDFF012010BD09A1F8E70000F1
:1013200053494752544D454D3A204F7574206F66CE
:101330002068656170206D656D6F72790000000036
:101340003A2048656170206D656D6F727920636F1A
:101350007272757074656400FEE7000040F2185008
:10136000C2F2000000F01EBA10B58AB040F2AC1014
:10137000C2F200000124047023A0FFF73FFA00200E
:10138000CDE90604CDE90000CDE90200CDE9040075
:10139000CDE9084040F21850C2F20000694600F062
:1013A000FFF838B145F25C00C0F60000FFF726FAFE
:1013B00000F06AF845F28F00C0F60000FFF71EFA51
:1013C00040F21850C2F2000000F0F6FB20B116A067
:1013D000FFF714FA00F058F817A0FFF70FFA40F2E1
:1013E0001850C2F20000022100F064F820B117A0EA
:1013F000FFF704FA00F048F845F2C800C0F6000014
:10140000FFF7FCF90AB010BD2D2D2D2D2D204341E5
:101410004E205465737420426F6172642023312022
:101420002D2D2D2D2D0D000043414E205374617242
:1014300074204661696C0D0043414E205374617203
:101440007420537563636573730D000043414E5FF1
:1014500049545F52585F4649464F305F4D53475F8E
:1014600050454E44494E4720456E61626C652046AA
:1014700061696C0D0000000040F24050C2F20000B3
:1014800000F032BC7047000040F2AC1545F2F404A5
:10149000C2F200050126C0F60004EFF3108072B618
:1014A00020462E70FEF788FF4FF4FA7000F0AEFD74
:1014B000F6E7000090F82020013A012A08D80068D9
:1014C00000F114020020136819431160704700BF37
:1014D00000F1240201204FF48021136819431160A8
:1014E0007047000010B590F820E0D0F800C0AEF1D1
:1014F000010EBEF1010FDCF808E011D81EF0E05F2C
:1015000018D0CEF3016EBEF1030F1DD100F12401FE
:1015100001204FF400020B681A430A6010BD00BF9F
:1015200000F1240101204FF480220B681A430A6065
:1015300010BD00BF00F1240101204FF400120B6820
:101540001A430A6010BD00BF012000FA0EF01860B7
:10155000886818B14B6840EAC30001E0086840059C
:10156000D1E9033403430CEB0E10C0F88031C0F80E
:101570008441097D012905D100F5C2710B6843F44E
:1015800080730B605168C0F88C11126800F5C0714F
:10159000C0F88821002001220B681A430A6010BDA0
:1015A000B0B590F82020013A012A2FD846F2006009
:1015B000C4F20000026842F001020260026822F4F4
:1015C0007C520260D1F814E0CC694A6A0368012CAD
:1015D00043EA022202600EF01F024FF0010303FAF9
:1015E00002F2C3696FEA020C23EA0203C36113D05B
:1015F0002CBBC36803EA0C03C360CB688C8844EA45
:10160000034300EBCE0423640B4611E0416A41F42E
:10161000802141620120B0BDC3681343C3600B68E1
:101620008C8844EA034300EBCE04236401F10C03ED
:101630008C681B8843EA044300EBCE046364436870
:101640008D6943EA0204D1F810E0096A002D08BF51
:1016500003EA0C0444604369BEF1000F43EA02044C
:1016600008BF03EA0C040129446102D1C169114396
:10167000C161016821F0010101600020B0BD0000DE
:101680007047000010B590F82040013C012C71D843
:10169000D0F800C0002977D0DCF81040A40777D03C
:1016A0000CEB011CDCF8B0410CF5D87E14F00404FE
:1016B0009460DCF8B04119BFE4085460640D146014
:1016C000DEF80040002904F00204D460DCF8B441E4
:1016D00004F00F041461DCF8B441C4F307249461EE
:1016E000DCF8B4414FEA14445461DCF8B8211A70B4
:1016F000026802EB0112D2F8B8214FEA12225A70A6
:10170000026802EB0112D2F8B8214FEA12429A7035
:10171000026802EB0112D2F8B8214FEA1262DA70C5
:10172000026802EB0112D2F8BC211A71026802EBC6
:101730000112D2F8BC214FEA12225A71026802EB60
:101740000112D2F8BC214FEA12429A71026802EBF0
:101750000112D2F8BC214FEA1262DA71006814BF9C
:1017600000F1100100F10C01002020220B681A4347
:101770000A6010BD00F1240101204FF480220B68A3
:101780001A430A6010BD00BFDCF80C40A40787D1E3
:1017900000F1240101204FF400120B681A430A6083
:1017A00010BD00002DE9F04F81B004460068466985
:1017B000D0F804908768D0F80CB0D0F810A0D0F81A
:1017C0001880F10704D1002530071DD424E000BFA4
:1017D000F90710D00121BA07816009D4780700F118
:1017E000AF80380700F1B680204600F013FA02E01F
:1017F000204600F011FA0025F80500F18780F80373
:1018000000F1B180300707D51BF0100004D020682C
:1018100045F400751021C160700708D51BF0080061
:1018200005D020680821C160204600F0A3F9B00768
:1018300006D52068C068800702D0204600F09CF9D9
:10184000700607D51AF0100004D0206845F48065B2
:1018500010210161B00608D51AF0080005D02068F3
:1018600008210161204600F0A1F9F00606D52068A4
:101870000069800702D0204600F09AF9B00308D52D
:1018800019F0100005D0206810214160204600F0BA
:1018900091F9F00308D519F0080005D02068082157
:1018A0004160204600F0C2F9300440F19B805FEABD
:1018B000497040F1948006F4807008EA10202843B3
:1018C0005FEA8871014648BF41F00201B20558BF86
:1018D00001465FEA48700D4648BF45F004057005B3
:1018E00058BF0D46300540F17A8018F0700000F0C6
:1018F00076801038000905286CD8DFE800F003591D
:101900005D61656945F0080564E000BF20684FF43B
:101910008071BA0581600BD4780515D438051DD4C3
:10192000204600F07BF9F8037FF56CAF1BE000BFA9
:10193000204600F075F9F8037FF564AF13E000BFAF
:101940004FF4006558E700BF05F50055F8037FF533
:1019500059AF08E04FF480554EE700BF05F58045CC
:10196000F8037FF54FAF20684FF48031BA038160F0
:101970000AD4780310D4380314D4204600F052F966
:1019800030073FF541AF47E7204600F04DF93007FB
:101990003FF53AAF40E700BF05F5004530073FF59A
:1019A00033AF39E705F5803530073FF52DAF33E725
:1019B00045F010050EE000BF45F020050AE000BF2D
:1019C00045F0400506E000BF45F0800502E000BF9D
:1019D00045F480752068816921F07001816120687B
:1019E0000421416055B1606A40EA05012046616208
:1019F00001B0BDE8F04FFFF743BE00BF01B0BDE846
:101A0000F08F0000B0B5C8B1044690F8200010B9BE
:101A1000204600F071F82068016841F00101016082
:101A200000F0F4FB054600BF20684168C90707D1F4
:101A300000F0ECFB401B0B28F6D312E00120B0BDF8
:101A4000016821F00201016000F0E0FB054600BFE3
:101A50002068416889070DD500F0D8FB401B0B2892
:101A6000F6D3606A052140F400306062012084F8FA
:101A70002010B0BD217E0268012922F0800208BF3B
:101A800080320260617E0268012922F0400208BFB4
:101A900040320260A17E0268012922F0200208BFC4
:101AA00020320260E17E0268012922F0100218BF94
:101AB00010320260217F0268012922F0080208BF6B
:101AC00008320260617F0268012922F0040208BF27
:101AD00004320260D4E901C2D4E9033561691A43D2
:101AE0002A431143ACF101021143C16100200121DD
:101AF000606284F82010B0BD80B586B0016846F2FF
:101B00000040C4F20000814202D006B080BD00BF98
:101B1000002143F630020191C4F20202136900F57C
:101B2000D03043F000731361136903F00073019325
:101B3000019B0191136843F002031360126802F0E5
:101B400002020192019A4FF4407201920222CDE901
:101B50000221032104910921059101A900F06AFAEB
:101B600014200021002200F0D1FB142000F0BEFB65
:101B700006B080BD7047000040F21851C2F200016B
:101B8000884218BF704780B582B040F2185040F2CA
:101B9000FC42C2F20000C2F200026B460021FFF7D5
:101BA00071FD02B0BDE88040704700007047000042
:101BB0007047000070470000B0B5044690F8200060
:101BC00001281DD1022084F820002068016821F03E
:101BD0000101016000F01AFB054600BF2068406863
:101BE000C00713D000F012FB401B0B28F6D3606A2D
:101BF00040F400306062052084F820000120B0BD70
:101C0000606A40F4002060620120B0BD0020606284
:101C1000B0BD000070470000704700007047000032
:101C200070470000704700007047000070470000D8
:101C300070B5866D044600F0E9FA94F83510022973
:101C40002ED105462068216C026822F0160202603F
:101C5000426922F08002426109B9A16C19B10168A0
:101C600021F008010160016821F0010101600068B4
:101C7000C00708D000F0CAFA401B052818D8206811
:101C80000068C007F6D1E06D3F2101FA00F0B060B6
:101C9000012084F835000020002184F8341070BD44
:101CA000802060650120002184F8341070BD00BFE1
:101CB00020206065032084F83500002184F834106A
:101CC00070BD000090F83510022909D1052180F877
:101CD00035100068016821F00101016000207047A3
:101CE0008021416501207047F0B581B00446002095
:101CF000009040F21400C2F200000268D4E91660BD
:101D000048F2B51337680821C1F64E338140394295
:101D1000A2FB03250CD0226813685B0708D5136863
:101D200023F004031360B160616D41F0010161654E
:101D300001218140394208D022685269120604D537
:101D4000B160616D41F00201616504218140394259
:101D500008D022681268920704D5B160616D41F025
:101D60000401616510218140394217D02068026862
:101D7000120713D5B16002680168520308D4C9057F
:101D800008D4016821F008010160216C21B905E047
:101D900008033FD4216C09B120468847E16D20201B
:101DA00000FA01F23A4241D020680368DB063DD5D3
:101DB000B26094F835300268052B1BD122F0160270
:101DC0000260426922F080024261226C0AB9A26C70
:101DD0001AB1026822F0080202603F208840B06019
:101DE000012084F83500216D0020002984F834009A
:101DF00052D157E00168520310D4C90512D40168CA
:101E000021F010010160012084F83500002084F8E1
:101E1000340007E0A16C0029BED1BFE7080301D45C
:101E2000616C00E0E16B09B120468847606DC8B382
:101E3000606DC0072ED0052084F835002068A90AFF
:101E4000026822F001020260009A01328A42009286
:101E50001AD80268D20717D0009A01328A4200923B
:101E600012D80268D2070FD0009A01328A4200923B
:101E70000AD80268D20707D0009A01328A4200923B
:101E800002D80268D207DFD1012084F83500002093
:101E900084F83400E16C29B1204601B0BDE8F0407F
:101EA000084700BF01B0F0BD2DE9F041044600F045
:101EB000ADF9002C4ED00546022084F835000020F4
:101EC000216884F83400086820F001000860086880
:101ED000C00708D000F09AF9401B05286CD821688B
:101EE0000868C007F6D1086848F23F02CFF2100236
:101EF000D4E90135024004F10C0E9EE8C1511A43A9
:101F00002A4310433043384340EA0800626A40EAFB
:101F10000C00042A40EA0E0320D1D4E90A5E206BAB
:101F20004EEA0302104308604869BEF1000F20F03A
:101F3000030040EA050040F0040C15D0B8F5005F3E
:101F400042D0B8F1000F51D1022D52D0012D47D00F
:101F500055B94EE00120BDE8F08100BF0B60486933
:101F600020F0070040EA020C6FF00F004AF6AB22A7
:101F700050FA81F0CAF6AA22A0FB02231A0945F200
:101F80005403C0F600039A5C40F2FF335F284FF021
:101F90003F00C1F814C021EA030100FA02F088BF33
:101FA0000431C4E916128860002301220020636511
:101FB00084F83520BDE8F0810322202303206365E7
:101FC00084F83520BDE8F081032DCDD801224023CF
:101FD0000120DFE805F0030E030500BFE7E700BFBF
:101FE000AEF1C070B0FA80F0400904E0032D04D3D4
:101FF000BAD1CEF300600028B6D0012240230120E0
:10200000636584F83520BDE8F0810000B0B5044672
:1020100000F0FCF8054640F20C00C2F20000007827
:10202000611C18BF044400BF00F0F0F8401BA04240
:10203000FAD3B0BD2DE9F04F82B000F13E4241F637
:10204000004502F1FF77C4F2020508224FEAB726E5
:10205000A84208BF0722072E38BF4FEAB7224FF029
:10206000010A002400274FF00008009208E000BF9A
:10207000023708F10108202F04F1040400F0B480B5
:102080000E680AFA08F916EA090FF1D0D1F804A08F
:102090000AF0030BABF10106012E17D80322866864
:1020A00002FA07FECA6826EA0E06BA403243826088
:1020B0004268CAF3001522EA090205FA08F54FEA58
:1020C000480C6FEA0E062A4342600BE00322BA4036
:1020D000D643BBF1030FBC4604D1BC464FF0030B03
:1020E00022E000BFC2688D68324005FA0CF52A4331
:1020F000BBF1020FC26017D16FF0030202EA58026F
:10210000024404F01C030F25D2F820E005FA03FA7C
:102110000D692EEA0A0E05FA03F343EA0E03136271
:10212000D1F804A00AF0030B02680BFA0CF332405A
:102130001A431AF4403F4FF0010A026098D000227F
:1021400043F644030192C4F202031A6843F6004EB8
:1021500042F480421A601A68C4F2010E02F480420E
:102160000192019A28F003024FF6084C7244CFF610
:10217000FF7C52F80C3004F00C060F25B540AB4341
:10218000009D05FA06F6334342F80C30DEF80820CD
:102190004B6842EA090643F60C4CDD0258BF22EABE
:1021A0000906CEF80860C4F2010CDCF800209D029C
:1021B00042EA090658BF22EA0906CCF80060DEF8B8
:1021C00004209D0342EA090658BF22EA0906CEF818
:1021D0000460DEF80020DB0342EA090658BF22EA69
:1021E0000906CEF8006043E702B0BDE8F08F0000BA
:1021F000426902EA0103914341EA03418161704768
:10220000002A08BF090481617047000040F22C6079
:10221000C2F200000068704740F20C0040F22C61EE
:10222000C2F20000C2F2000100780A68104408609F
:102230007047000080B543F60040C4F20200016818
:1022400041F400710160016841F48061016001683E
:1022500041F480710160032000F084F80F2000F049
:1022600005F800F027F8002080BD000070B540F2AE
:102270000C06C2F2000640F214013278C2F20001EC
:102280004FF47A730968B3FBF2F20446B1FBF2F142
:10229000084600F057FB0F2C4FF0010508D838B95D
:1022A0004FF0FF3021460022002500F02FF8746027
:1022B000284670BD82B0002043F640010190C4F270
:1022C00002014A6842F480424A604A6802F480424D
:1022D0000192019A0090086840F0805008600868F8
:1022E00000F080500090009802B07047002848BF6E
:1022F000704700F01F01012202FA01F14EF20012B4
:102300004009CEF2000242F82010704710B54EF698
:102310000C5CCEF2000CDCF80030C3F3022E8EF021
:102320000704042C28BF0424BEF103034FF0FF3E32
:102330000EFA04F438BF0023A14399400EFA03F3C8
:102340009A43114300F00F02043A624409010C322F
:1023500000F16043B0F1FF3FC8BF03F56442117064
:1023600010BD00004EF60C51CEF200010A684FF687
:10237000FF031A4060F30A2242F0806040F0FD70D3
:1023800008607047704700002DE9F041002800F018
:102390008B8043F60808C4F202080446D8F8F80314
:1023A0000D4600F00700884207D288F8F853D8F8A5
:1023B000F80300F00700A84276D12068810717D5FE
:1023C000410705D5D8F8001041F4E051C8F80010D5
:1023D000010705D5D8F8001041F46041C8F8001095
:1023E000D8F80010A26821F0F0011143C8F80010DD
:1023F000C0073FD1D8F8F80300F00700A84207D97A
:1024000088F8F853D8F8F80300F00700A8424BD139
:102410002068410707D5D8F80010E26821F4E051A0
:102420001143C8F80010000708D5D8F8000021694A
:1024300020F4604040EAC100C8F8000000F082F8D3
:10244000D8F8001045F22502C1F30311C0F60002CE
:10245000515C40F2140220FA01F140F21000C2F285
:1024600000000068C2F200021160FFF7FFFE0020CA
:10247000BDE8F0816068811E022907D258F8081C67
:1024800089015CBF0120BDE8F08111E0012807D17E
:1024900058F8081C89035CBF0120BDE8F08107E003
:1024A00058F8081C890703D40120BDE8F08100BF5B
:1024B000D8F8001021F003010843C8F80000FFF726
:1024C000A5FE064641F28837D8F80000616800F0A2
:1024D0000C00B0EB810F8DD0FFF798FE801BB84247
:1024E000F2D90320BDE8F0814C20C4F2472001213D
:1024F0000160704740F2140043F60801C2F2000088
:10250000C4F202010068096845F23502C1F3822174
:10251000C0F60002515CC8407047000040F2140051
:1025200043F60801C2F20000C4F202010068096823
:1025300045F23502C1F34231C0F60002515CC84099
:102540007047000010B543F60404C4F2020460684A
:1025500000F00C0142F200400829C0F2F40007D05C
:10256000042918BF10BD41F20020C0F27A0010BD4E
:10257000216801F03F02216823684902C3F38811F2
:1025800006D4A1FB00010023FDF79EFE07E000BF7B
:1025900041F20020C0F27A004843B0FBF2F021681B
:1025A0000222C1F3014102EB4101B0FBF1F010BD89
:1025B00010B543F60C04C4F202042068000658BFAC
:1025C00010BDFFF7DFFE8020A07010BD2DE9F041A7
:1025D00082B000286AD00446007843F60006C0079F
:1025E000C4F202060BD0B06800F00C00042840F0E2
:1025F000A1803068800302D56068002856D020781A
:1026000080071AD5B06810F00C0F09D0B06800F040
:102610000C00082840F0A8807068400200F1A480F7
:102620003068800702D5E06801283FD13068216911
:1026300020F0F80040EAC10030602078000739D46B
:10264000207840074ED4A5695DB3B06800F00C0057
:10265000082840F0BD80012D28D07068E16900F4A1
:1026600080028A4222D1216A00F03F028A421DD1B3
:1026700047F6C071626A0140B1EB821F16D1A26AAF
:102680000023CFF6FF7303EBC23200F440316FF347
:102690000F0291420AD1E16A00F07060B0EB016F65
:1026A00004D1002002B0BDE8F08100BF012002B0DB
:1026B000BDE8F0816069002840F20000C4F24720C4
:1026C00076D00121C0F8801EFFF7A0FD054600BFAF
:1026D000706F8007B4D4FFF799FD401B0228F7D92B
:1026E000DDE000BF306C10F080580AD1002001906E
:1026F000306C40F080503064306C00F080500190BD
:10270000019847F20007C4F200073868C00541D4B9
:10271000386840F480703860FFF778FD054600BFE8
:102720003868C00536D4FFF771FD401B0228F7D981
:10273000B5E000BFB06800F00C00082803D1706855
:1027400040023FF556AF6068B0F5803F07D0B0F566
:10275000A02F40F08D80306840F4802030603068D9
:1027600040F4803030608DE0E068002852D00020D6
:10277000C4F2472001210160FFF748FD054600BF74
:10278000306880073FF552AFFFF740FD401B02283D
:10279000F6D984E0A068012805D005284ED1306F15
:1027A00040F004003067306F40F0010030674FE0C8
:1027B0000021C0F8801EFFF729FD0546706F8007D5
:1027C0007FF53EAFFFF722FD401B0228F6D966E0F9
:1027D0000027C4F2472700203866FFF717FD022DB7
:1027E00005460BD1306880015ED5FFF70FFD401B19
:1027F00002284FF00300F5D954E700BF306880018C
:102800007FF54FAFFFF702FD401B02284FF003009A
:10281000F4D947E70020C4F2472000210160FFF708
:10282000F5FC0546306880077FF507AFFFF7EEFC43
:10283000401B02284FF00300F4D933E7316F002822
:1028400021F001013167316F21F0040131674DD072
:10285000FFF7DCFC054641F2883700BF306F800788
:1028600056D4FFF7D3FC401BB842F7D917E000BF9E
:102870003168002821F480313160316821F48021F1
:1028800031604FD0FFF7C2FC054600BF30688003BF
:102890003FF5B5AEFFF7BAFC401B6428F6D903201C
:1028A00002B0BDE8F08100BF04F11C052FCD084344
:1028B0000021CFF6FF7140EA821001EBC3316FF3C4
:1028C0000F0140EA05600843706001203866FFF799
:1028D0009DFC0446306880013FF5E3AEFFF796FCAF
:1028E000001B02284FF00300F4D9DBE6FFF78EFC53
:1028F000054641F2883700BF306F800708D5FFF7E3
:1029000085FC401BB8424FF00300F5D9CAE600BF72
:10291000B8F1000F7FF497AE306C20F08050306437
:1029200091E600BFFFF772FC054600BF30688003E8
:102930007FF565AEFFF76AFC401B64284FF003008B
:10294000F4D9AFE6411E0020B0EB116F1CBF01208F
:1029500070474EF21002CEF2000251604EF6235143
:10296000CEF20001F0230B700721906011607047D8
:10297000B0B590F83C20012A04BF0220B0BD01F19F
:1029800008053CCDD1E900CE23F47C5322F47052EB
:102990001A432EF4F0431A432CF4E0431A4324F470
:1029A000C0431A432A43C96922F480420368114391
:1029B0005964002180F83C100846B0BD10B590F86D
:1029C0003C20012A4FF0020251D080F83D200268DD
:1029D000D2F804E0D2F808C00C682EF0700323434C
:1029E00041F2FF74C4F20004A24253600EDC40F2D4
:1029F000FF73C4F200039A4216DCB2F1804F2BD071
:102A000040F20043C4F2000324E000BF40F2FF3371
:102A1000C4F201039A4213DC41F60003C4F200033E
:102A20009A4219D0002313E040F60003C4F20003D9
:102A30009A4211D040F60043C4F200030AE000BFFE
:102A400044F20003C4F201039A4205D040F200436D
:102A5000C4F201039A4204D149682CF0800319435F
:102A600091600121002280F83D1080F83C20104642
:102A700010BD0000002804BF0120704710B50446B7
:102A800090F83D0028B9002084F83C00204600F072
:102A90001FF8022084F83D002068211D01F046FA4D
:102AA000012084F8460084F83E0084F83F0084F852
:102AB000400084F8410084F8420084F8430084F820
:102AC000440084F8450084F83D00002010BD00005B
:102AD00070B582B0044600680021C4F2010188424A
:102AE00002D002B070BD00BF002043F64401019047
:102AF000C4F202010A6840F2405542F001020A6045
:102B00000968C2F2000501F001010191019946F244
:102B10002841C4F202014FF0406240234FF40056B6
:102B200085E80E0005F10C014FF4806C4FF4006E47
:102B300081E80150C5E90660C5E908002846FFF7AD
:102B4000B3F9002818BFFEF79FFC6562AC6302B0C2
:102B500070BD000080B590F83C20012A4FF00202C1
:102B600000F0C28080F83D20D0F800C04FF67772A8
:102B7000DCF8083023EA0202CCF808200B684F2B5F
:102B800028DC1F2B44DD202B45D0302B43D0402B9D
:102B900040F0AC80D1F804E0C968DCF82030DCF803
:102BA000202022F00102CCF82020DCF8182022F0AE
:102BB000F00242EA011123F00A0242EA0E02CCF8C6
:102BC0001810CCF82020DCF8081041F0470121F063
:102BD000300180E06F2B27DDB3F5005F48D0B3F5FF
:102BE000805F7AD0702B40F08180D1E901E3C96821
:102BF000DCF8082043EA0E0322F47F4243EA012175
:102C00001143CCF80810DCF8081041F0770162E0BD
:102C10000BB1102B6AD1DCF8081021F070011943B8
:102C200041F0070157E000BF502B35D0602B5DD13C
:102C3000D1F804E0C968DCF8203023F01003CCF8A8
:102C40002030DCF81830DCF8202023F4704322F028
:102C5000A00243EA013142EA0E12CCF81810CCF877
:102C60002020DCF8081041F0670121F0100132E06B
:102C7000D1E901E3C968DCF8082043EA0E0322F435
:102C80007F4243EA01211143CCF80810DCF8081018
:102C900041F480411FE000BFD1F804E0C968DCF8CE
:102CA0002030DCF8202022F00102CCF82020DCF8D3
:102CB000182022F0F00242EA011123F00A0242EA4F
:102CC0000E02CCF81810CCF82020DCF8081041F0E7
:102CD000570121F02001CCF808100022012180F8D2
:102CE0003D10002180F83C10104680BD0122F5E720
:102CF0002DE9F04190F83C30012B04BF0220BDE8E3
:102D0000F0814FEAB202032A00F2FC80DFE802F011
:102D1000023E7EBE036840F200471A6A43F48065B3
:102D200022F001021A621C6A1A46D3F804E052F833
:102D300018CF8E6824F00204C4F20107BD4244EAB1
:102D4000060405D1CE6824F00C0426F004063443B2
:102D50000E68BD4207D1D1E905572EF4407E45EA01
:102D60000E0545EA070E2CF073073743C3F804E05D
:102D70009F614F6809695F631C629F6947F008079C
:102D80009F619F6927F004079F61B1E0036840F2EB
:102D900000481A6A43F4806522F010021A621C6A25
:102DA0001A46D3F804E052F818CF8F6824F02004B4
:102DB000C4F20108454544EA071407D1CF686FF013
:102DC000400624F0C00406EA071634430F68454560
:102DD00007D1D1E905562EF4406E4EEA850545EA45
:102DE000860E2CF4E64646EA0727C3F804E09F6106
:102DF0004F6809699F631C629F6947F400679F6180
:102E00009F6927F480679F6171E000BF036840F20B
:102E100000481A6A43F4806522F480721A621C6AC0
:102E20001A46D3F804E052F81CCF8F6824F40074DB
:102E3000C4F20108454544EA072408D1CF6840F2AE
:102E4000FF463F0224F4406427EA060634430F6835
:102E5000454507D1D1E905562EF4405E4EEA0515E9
:102E600045EA061E2CF073063743C3F804E0DF6121
:102E70004F680969DF631C62DF6947F00807DF619B
:102E8000DF6927F00407DF6132E000BF036840F22A
:102E900000451A6A43F4806722F480521A621A4687
:102EA000D3F820C05C6852F81CEFD1F800808E681F
:102EB000C4F20105AF4204D14D6924F4804444EAD0
:102EC00085142CF4005747EA06372EF4E64646EA06
:102ED00008265C60DE614E6809691E641F62DF6956
:102EE00047F40067DF61DF6927F48067DF6109026B
:102EF0001368194311600021002280F83C20084625
:102F0000BDE8F0810121002280F83C200846BDE8A0
:102F1000F0810000002804BF0120704710B504466E
:102F200090F83D0028B9002084F83C00204600F0CD
:102F30001FF8022084F83D002068211D00F0F6FFF4
:102F4000012084F8460084F83E0084F83F0084F8AD
:102F5000400084F8410084F8420084F8430084F87B
:102F6000440084F8450084F83D00002010BD0000B6
:102F700070470000704700007047000090F83D1057
:102F800090F83E000843C0B270470000B0B582B070
:102F9000044600680168C368426901F02F05202DCE
:102FA00003F0200506D12DB1204602B0BDE8B040A7
:102FB00001F060B85FEA017C1EBF02F0010E03F46D
:102FC000907212EB0E0255D1226B012A05D111F03D
:102FD000100218BF13F0100236D10A0622D513F0E2
:102FE00080021FD094F83D10212941D1A168B1F58C
:102FF000805F03D12169002900F06C82216A4A1C9C
:10300000226209784160E18C01390A04E1842FD100
:10301000C16821F08001C160C16841F04001C16018
:1030200002B0B0BD490623D513F0400120D0C168DD
:1030300021F04001C1602021204684F83D1002B0FB
:10304000BDE8B04000F04CBD002101910168019144
:103050004168019101994169490600F18B80A18D78
:10306000E28DE38D002B1CBF891A5FEA01420CD16F
:1030700002B0B0BDCA0718BF13F4807240F03281AD
:103080004A0700F135813AE1206850E8030F2268D1
:1030900020F4907042E80303DBB1206850E8030F8E
:1030A000226820F4907042E8030393B1206850E84E
:1030B000030F226820F4907042E803034BB12068AC
:1030C00050E8030F226820F4907042E80303002BBD
:1030D000DAD1206850E8050F226820F0010042E8AC
:1030E0000503DBB1206850E8050F226820F00100DD
:1030F00042E8050393B1206850E8050F226820F0EC
:10310000010042E805034BB1206850E8050F226832
:1031100020F0010042E80503002BDAD1202084F8DA
:103120003E0000202063206850E8030F226820F052
:10313000100042E80303DBB1206850E8030F226867
:1031400020F0100042E8030393B1206850E8030F19
:10315000226820F0100042E803034BB1206850E8D9
:10316000030F226820F0100042E80303002BDAD19D
:1031700089B2B0E0A26B11684B689DB2002D3FF49C
:1031800077AFA18D8D42BFF473AFE385D269B2F5FD
:10319000807F00F09D8050E8030F216820F480704C
:1031A00041E80302E2B1206850E8030F216820F4EF
:1031B000807041E803029AB1206850E8030F21684B
:1031C00020F4807041E8030252B1206850E8030FF8
:1031D000216820F4807041E803020AB12068DAE730
:1031E000206850E8050F216820F0010041E8050241
:1031F000DAB1206850E8050F216820F0010041E8AD
:10320000050292B1206850E8050F216820F0010006
:1032100041E805024AB1206850E8050F216820F016
:10322000010041E80502002ADAD1206850E8050FC4
:10323000216820F0400041E80502DAB1206850E83A
:10324000050F216820F0400041E8050292B1206896
:1032500050E8050F216820F0400041E805024AB11E
:10326000206850E8050F216820F0400041E8050281
:10327000002ADAD1202084F83E0000202063206854
:1032800050E8030F216820F0100041E80302DAB192
:10329000206850E8030F216820F0100041E8030285
:1032A00092B1206850E8030F216820F0100041E837
:1032B00003024AB1206850E8030F216820F0100093
:1032C00041E80302002ADAD1A06BFEF7B1FCA18D20
:1032D000E08D081A81B2204602B0BDE8B040FFF789
:1032E00049BE00BF226C42F0010222644A0706D5A3
:1032F000BEF1000F03D0226C42F0020222648A0762
:1033000006D5BEF1000F03D0226C42F00402226405
:10331000BCF1000F06D555EA0E0203D0226C42F034
:1033200008022264226C002A3FF4A2AE11F02001B0
:1033300018BF002D03D0204600F09CFE2068416994
:10334000226C01F0400102F00802891800F0A2800E
:1033500050E8030F216820F4907041E80302C2B3E3
:10336000206850E8030F216820F4907041E80302C0
:103370007AB3206850E8030F216820F4907041E888
:10338000030232B3206850E8030F216820F49070E4
:1033900041E80302EAB12068DAE700BF206850E89C
:1033A000050F216820F0010041E80502DAB120682C
:1033B00050E8050F216820F0010041E8050292B1B4
:1033C000206850E8050F216820F0010041E805025F
:1033D0004AB1206850E8050F216820F0010041E85B
:1033E0000502002ADAD1206B012824D1206850E898
:1033F000030F216820F0100041E80302DAB12068D1
:1034000050E8030F216820F0100041E8030292B158
:10341000206850E8030F216820F0100041E8030203
:103420004AB1206850E8030F216820F0100041E8FD
:103430000302002ADAD1202084F83E000020206315
:103440002068416949063FD550E8050F216820F002
:10345000400041E805022AB3206850E8050F2168C2
:1034600020F0400041E80502E2B1206850E8050F75
:10347000216820F0400041E805029AB1206850E838
:10348000050F216820F0400041E8050252B1206894
:10349000DAE700BF2046FFF76FFD0020206402B08E
:1034A000B0BD00BFA06B78B144F26901C0F6000165
:1034B0000165FEF707FC00283FF4DAADA06B016D53
:1034C00002B0BDE8B0400847204602B0BDE8B040B9
:1034D000FFF752BD216A31F8022B6FF35F22426081
:1034E000216290E5002804BF0120704710B5044612
:1034F00090F83D0028B9002084F83C00204600F0F8
:1035000021F8242084F83D002068C16821F400518E
:10351000C160204600F02EFE2068016921F4904130
:103520000161416921F02A014161C16841F4005102
:10353000C16000202021206484F83D1084F83E10F2
:1035400010BD000010B586B0006844F60002C4F259
:10355000000200219042CDE90411CDE90211019150
:1035600026D041F20001C4F20101884254D100206A
:1035700043F630010090C4F202014A69252442F06A
:1035800010024A614A6902F010020092009A00900B
:10359000086840F001000860086800F00100009031
:1035A00000984FF4C06001900020C4F2020020E0B7
:1035B00043F630000091C4F202000269272442F46D
:1035C00080220261026902F480220092009A009136
:1035D000016841F002010160006800F00200009003
:1035E00000984FF4406001900020C4F2020000F502
:1035F000806002210291002103910321049107219F
:10360000059101A9FEF716FD204600210022FEF7D4
:103610007DFE2046FEF76AFE06B010BD90F83E30F3
:10362000202B0BD100294FF0010318BF002A01D134
:103630001846704790F83C30012B01D102207047AA
:1036400000230363816222218285C285036480F89E
:103650003E100269016880F83C301AB1C86840F435
:103660008070C8604869002340F001004861C86864
:1036700040F02000C860184670470000F0B581B0E7
:1036800044F600060446C4F20006006806F5484108
:10369000884255D140F2F417C2F200073878FF286B
:1036A00018D10020387040F2FC20C2F200004FF424
:1036B0008071FDF71BF940F2B01045F20511C2F21E
:1036C0000000C0F600010A224FF6FF7300F0C8F8B0
:1036D0002DE000BFFB7840F2FC22411CC2F2000248
:1036E0000A2B3970135422D1104410F8010C0D2804
:1036F0001DD140F2E855CAB2C2F2000540F2FC21E9
:10370000C2F2000128464FF6FF7300F0A9F800BF8F
:103710002846FFF733FC2128FAD00020387040F209
:10372000FC20C2F200004FF48071FDF7DFF840F298
:10373000B010F91CC2F200000122FFF76FFF2068F1
:10374000B0421CBF01B0F0BD40F2F415C2F200055A
:103750006878FF2818D10020687040F2FC30C2F26F
:1037600000004FF48071FDF7C1F840F2E85045F2D7
:103770000511C2F20000C0F600010A224FF6FF73E5
:1037800000F06EF85DE000BF2B7940F2FC32411C86
:10379000C2F200020A2B6970135452D1104410F87F
:1037A000010C0D284DD102294BD040F2FC34C2F25D
:1037B000000429A120460322FDF748F820B1208803
:1037C000202801D0207878B940F2FC30C2F2000005
:1037D0004FF48071FDF78AF840F2E850291DC2F2DB
:1037E00000000122FFF71AFF40F2FC34C2F200048D
:1037F0001AA12046FDF718F888B10120A87040F200
:10380000FC30C2F200004FF48071FDF76FF840F217
:10381000E850291DC2F200000122FFF7FFFE2078C8
:103820000D280CD160780A2809D142F62D5020804D
:1038300040F2FC10C2F200002146FDF733F80020F0
:10384000687040F2E850291DC2F20000012201B068
:10385000BDE8F040FFF7E2BE0D0A00004F4B00004C
:103860002DE9F04381B0044690F83D0020280DD1A9
:103870000F4600294FF0010000F0DD801646002AB7
:1038800000F0D98094F83C00012803D1022001B057
:10389000BDE8F083012084F83C004FF000092120AE
:1038A0001D46C4F8409084F83D00FEF7AFFCA684A6
:1038B000E684A1680646B1F5805F07D1206900283B
:1038C0001CBF38464F46B846074601E04FF0000897
:1038D00084F83C90E18C2068002900F08B8005F191
:1038E00001090AE047B317F8011B4160E18C013977
:1038F000E184E18C002900F07D8001680906F1D4A3
:10390000B9F1000F0AD0EDB1FEF780FC801BA84290
:1039100018D8206801680906F6D5E3E701680906AA
:10392000E0D4016809065CBF01685FEA0161D9D48F
:1039300001680906F2D5D5E738F8021B00276FF3B6
:103940005F21D2E7206850E8030F216820F4D0708F
:1039500041E80302BAB3206850E8030F216820F45D
:10396000D07041E8030272B3206850E8030F216869
:1039700020F4D07041E803022AB3206850E8030F16
:10398000216820F4D07041E80302002ADAD11AE05D
:10399000206850E8050F216820F0010041E8050289
:1039A000DAB1206850E8050F216820F0010041E8F5
:1039B000050292B1206850E8050F216820F001004F
:1039C00041E805024AB1206850E8050F216820F05F
:1039D000010041E80502002ADAD1202084F83D00E8
:1039E00084F83E00002084F83C00032001B0BDE8CC
:1039F000F08300BF0168490619D4FDB1691C0DD1DF
:103A00000168490613D4016849065CBF01685FEA92
:103A100041610CD401684906F2D508E0FEF7F6FBD7
:103A2000801BA8420AD8206800684006F6D52020EE
:103A300084F83D00002001B0BDE8F083206850E824
:103A4000030F216820F4D07041E80302E2B320683C
:103A500050E8030F216820F4D07041E803029AB3C4
:103A6000206850E8030F216820F4D07041E8030279
:103A700052B3206850E8030F216820F4D07041E869
:103A80000302002ADAD11FE0206850E8050F216800
:103A900020F0010041E80502002A9ED0206850E88D
:103AA000050F216820F0010041E80502002A3FF4DB
:103AB00094AF206850E8050F216820F0010041E82C
:103AC0000502002A3FF489AF206850E8050F2168FD
:103AD00020F0010041E80502002AD5D17DE7000071
:103AE00070470000FEE7000010B540F2185046F2A3
:103AF0000041C2F20000C4F2000140F200142A2288
:103B00000023C0F2010480E80E0000F10C014FF424
:103B1000003C4FF4401E81E8085084618383FDF728
:103B200071FF002808BF10BDBDE81040FDF7ACBC18
:103B300080B582B00020019043F63000C4F202004C
:103B40000168002241F4800101600068002100F456
:103B50008000019001983920FEF7D8FB392002B08F
:103B6000BDE88040FEF7C2BB2DE9F04387B00027D7
:103B700043F6300006970197C4F20200016841F253
:103B8000004541F0200101600168C4F2020501F026
:103B900020010191019901970168002241F0800103
:103BA000016001684FF4D86601F08001019101992C
:103BB0000197016841F002010160016801F0020112
:103BC000019101990197016841F04001016001688C
:103BD00001F04001019101990197016841F0010153
:103BE000016000684FF4D86100F001000190019875
:103BF0002846FEF705FB05F5806420464FF4C071AA
:103C000000224FF4C078FEF7FBFA029602AE4FF0A6
:103C1000010928463146CDE903970597FEF70AFAD0
:103C20004FF48070CDE90207284631460497FEF72D
:103C300001FA20463146CDE90289CDE90477FEF745
:103C4000F9F907B0BDE8F083B0B59CB0002540F2AB
:103C5000A050C4F201050021C2F20000D122169149
:103C6000CDE914111191CDE90F11CDE90D11CDE977
:103C70000B11CDE90911CDE90711CDE90511CDE908
:103C80000311CDE90111C0E90051C0E90212C0E9F8
:103C900004118161FEF7EEFE002818BFFDF7F4FB6A
:103CA0004FF48050139040F2A050C2F2000013A9CC
:103CB000FEF750FF002818BFFDF7E6FB40F2A050CA
:103CC000C2F20000FFF726F9002818BFFDF7DCFB61
:103CD00040F2A0500024C2F2000010A9CDE9104427
:103CE000FEF76CFE002818BFFDF7CEFB6020CDE983
:103CF000090440F2A050C2F2000009A90022CDE957
:103D00000B44CDE90D440F94FEF7F2FF002818BFD5
:103D1000FDF7BAFB40F2A05400204FF40051C2F26C
:103D200000040590CDE90300CDE90100069108905B
:103D300001A92046FEF71CFE002818BFFDF7A4FBD2
:103D40002068A84202D01CB0B0BD00BF002043F6DE
:103D500030011790C4F202010A6842F001020A60C1
:103D6000096801F00101179117994FF480711791BB
:103D70000221CDE918101A9001201B9005F5803022
:103D800017A9FEF757F91CB0B0BD000080B540F28E
:103D9000AC1041F20001C2F20000C4F2010140F88F
:103DA000041F4FF4E13100220C23C0E90112C0E9E5
:103DB0000322C0E90532C261FFF794FB002808BF67
:103DC00080BDBDE88040FDF75FBB000080B540F2DC
:103DD000E85044F60001C2F20000C4F200010023E2
:103DE0004FF00C0C4FF4165280E80E00C0E903337C
:103DF000C0E905C3C361FFF775FB002808BF80BD9C
:103E0000BDE88040FDF740BBFEE70000FEF7D0FBB9
:103E1000FEE700007047000070470000FEF7FCB9A5
:103E200070B592B0002443F64000CDE90A44CDE9D4
:103E300008440594CDE90344CDE901440094C4F25B
:103E400002000168012541F08051016000680226EE
:103E500000F080500090009847F200000094C4F2F7
:103E60000000016841F4804101600068A82100F46D
:103E70008040009000984FF4803007904FF480000D
:103E80000D9004200E90119006A806950C96CDE991
:103E90000F16FEF79BFBA8B140F2AC1645F2F404F6
:103EA000C2F20006C0F60004EFF3108072B600BF45
:103EB00020463570FCF780FA4FF4FA70FEF7A6F84A
:103EC000F6E700BF0F20CDE901064FF4A0500490A3
:103ED0004FF48050059001A805210394FEF754FA91
:103EE000B0B140F2AC1545F2F404C2F2000501266F
:103EF000C0F60004EFF3108072B600BF20462E70AB
:103F0000FCF75AFA4FF4FA70FEF780F8F6E700BFB4
:103F1000FEF7EAFA12B070BD4EF68850CEF20000FD
:103F2000016841F4700101607047000010B540F66F
:103F3000FF3E0368C4F2000E40F2004C7045C4F22C
:103F4000010C27DCB0F1804F31D040F20042C4F2C6
:103F5000000290422BD040F60002C4F200029042D0
:103F600025D041F6FF72C4F20002904229DC704570
:103F70003CDCB0F1804F5FD040F20042C4F200025E
:103F8000904259D040F60002C4F20002904253D051
:103F900056E000BF40F60042C4F20002904206D054
:103FA000604504D00022C4F201029042D9D14A688F
:103FB00023F07003134341F6FF72C4F200029042F3
:103FC000D5DD43F6FF72C4F20102904222DC42F2D8
:103FD0000002C4F2000290422ED00022C4F201027C
:103FE000904229D0604527D02AE000BF40F6004229
:103FF000C4F2000290421FD041F60002C4F2000257
:10400000904219D041F60042C4F20002904213D00F
:1040100016E000BF44F20002C4F2010290420BD04D
:1040200044F60002C4F20102904205D044F200427C
:10403000C4F20102904203D1CA6823F440731343CF
:1040400023F080024B69D1F800E08C681A430260CB
:10405000C46240F48062C0F828E0624504BF096988
:1040600001630121416110BD806B0021C185C184C4
:10407000FEF782BF81B090F83E10222920D18368DC
:10408000B3F5805F08D10169002965D000F12801EE
:104090000A6803685B680AE0014651F8282F13B9E3
:1040A0000369002BF5D003685B6803F07F0313708E
:1040B0000A6801320A60C18D01390A04C18501D044
:1040C00001B070470168CA6822F02002CA60CA685D
:1040D00022F48072CA604A6922F001024A612022F9
:1040E00080F83E20026B012A40D10022026300BF0B
:1040F00051E8031F026821F0100142E80313016830
:10410000DBB151E8031F026821F0100142E80313FC
:10411000016893B151E8031F026821F0100142E8E1
:10412000031301684BB151E8031F026821F010012D
:1041300042E803130168002BDAD10A68D20606D5DB
:10414000002200920A680092496800910099818DCE
:1041500001B0FEF70FBF00BF0168826A49686FF3C4
:104160005F2122F8021B8262A5E700BF01B0FFF7C2
:1041700085BA000010B504460068D4E902C223697C
:10418000016921F4405111430161626943EA0C0164
:10419000E3691143C268194349F20C639A4311431E
:1041A000C1604169A26921F4407141F200431143A9
:1041B00040F48062C4F201039A42416102D1FEF7E9
:1041C000ADF901E0FEF796F9E16963681922B1F5EE
:1041D000004FA0FB02011FD15A00DB0FFCF774F85F
:1041E00048F21F51C5F2EB11A0FB01235A096FF0F1
:1041F000630302FB0300322303EBC000A0FB0101B9
:104200004FF4F87000EA111000EB0210C1F34211F4
:1042100008442168886010BD9A009B0FFCF754F891
:1042200048F21F51C5F2EB11A0FB01235A096FF0B0
:10423000630302FB0300322303EB0010A0FB010128
:10424000F02000EA511000EB0210C1F343110844C2
:104250002168886010BD000040F2B010C2F200007A
:10426000FEF794BE40F2E850C2F20000FEF78EBEA8
:10427000FEE7000048F20401411A002011F1030F8B
:1042800038BF4FF0FF3070470020704748F20101FF
:10429000411A0020032938BF0120704710B518B318
:1042A000044600783A281FD145F24501C0F60001C6
:1042B0002046FCF745FBD8B145F24C01C0F60001A1
:1042C0002046FCF73DFBB8B145F23D01C0F60001C8
:1042D0002046FCF735FB01464FF0FF30002908BFB0
:1042E00048F2030010BD00BF4FF0FF3010BD00BF0B
:1042F00048F2010010BD00BF48F2020010BD0000EE
:104300004FF0FF307047000048F2030188420ED0A2
:1043100048F2020188421CBF4FF0FF307047002A6C
:1043200004BF0020704700BF013A00BEFCD100204E
:10433000704700002DE9F04182B040F27C14C2F2D7
:104340000004208D4FF0200844F6206708EB400160
:1043500007EB4000000A8DF8010040F29110206048
:1043600040F218508DF8001000250826C2F2000017
:104370006A4621460123C4E902552661FDF7B2F8D9
:1043800038B145F27500C0F60000FCF737FAFDF7CA
:104390007BF845F2AB00C0F60000FCF72FFAA08DC9
:1043A000009508EB400107EB4000000A01958DF8ED
:1043B00001004FF4CA70206040F218508DF80010D0
:1043C000C2F200006A4621460123C4E90255266173
:1043D000FDF788F838B145F27500C0F60000FCF72B
:1043E0000DFAFDF751F845F2AB00C0F60000FCF7FE
:1043F00005FA94F82A0094F82B1000253230CDE904
:1044000000558DF8000001F132008DF801004FF4E5
:10441000C970206040F218500826C2F200006A46B7
:1044200021460123C4E902552661FDF75BF838B146
:1044300045F27500C0F60000FCF7E0F9FDF724F83E
:1044400045F2AB00C0F60000FCF7D8F994F82E0056
:1044500094F82F103230CDE900558DF8000001F1AD
:1044600032008DF8010040F29510206040F21850A3
:10447000C2F200006A4621460123C4E902552661C2
:10448000FDF730F838B145F27500C0F60000FCF7D2
:10449000B5F9FCF7F9FF45F2AB00C0F60000FCF7F8
:1044A000ADF994F8200094F821100025CDE90055CD
:1044B0008DF8000001F128008DF80100E08CA18C3E
:1044C000ADF8030001EB81004100C00994F82220FF
:1044D0008DF805004FF4CB70206040F218508DF835
:1044E00002208DF806100826C2F200006A46214616
:1044F0000123C4E902552661FCF7F4FF38B145F207
:104500007500C0F60000FCF779F9FCF7BDFF45F235
:10451000AB00C0F60000FCF771F9D4E906016A4669
:10452000CDE9000140F29310206040F21850C2F231
:10453000000021460123C4E902552661FCF7D2FFA1
:1045400038B145F27500C0F60000FCF757F9FCF7EA
:104550009BFF45F2AB00C0F60000FCF74FF902B03C
:10456000BDE8F08100000000B0B540F27C14C2F25A
:104570000004642040F2180184F8220040F2C210C6
:10458000C2F20001C0F202200D786062208D4FF46B
:104590002052228465B1643082B241F27C539A4247
:1045A0004FF0000220850BD141F27C500BE000BFA0
:1045B000643802044FF00102208503D0012506E093
:1045C000002504E00020002D18BF01250A70A085F9
:1045D00080B2800800F0F9FA9FED1B0B53EC102B12
:1045E00000F006FB02460B4600F0BEF89FED180BEC
:1045F00053EC102B00F0FCFA9FED170B53EC102B33
:1046000000F0F6FA9FED160B53EC102B00F054F966
:1046100000F0ACFA20764FF47A70002D18BF00201D
:104620004FF064011CBF00212825A083E083E07EB9
:1046300061760530E07642F62800A5766085E08553
:10464000BDE8B040FFF776BE1F85EB51B81E0940AC
:10465000FBCBEEC9C342CD3FCDCCCCCCCCCC0C40B7
:104660000000000000004E4080B582B040F2AC1166
:10467000C2F20001019011F8042B40F2E850C2F29E
:104680000000012A08BF084601A901224FF6FF7366
:10469000FFF7E6F8019802B080BD000041F2004447
:1046A000C4F20204FDF7C6FDFFF7BAFBFFF75CFAA0
:1046B000FFF73EFAFFF76AFBFFF716FAFFF786FBF4
:1046C000FFF7C2FA40F2B01040F2F711C2F2000058
:1046D000C2F200010122FEF7A1FF40F2E85040F2D1
:1046E000F811C2F20000C2F200010122FEF796FFAB
:1046F00020464FF480710122FDF782FD20464FF4E1
:1047000000710022FDF77CFD20464FF480610122FC
:10471000FDF776FDFCF728FEFFF726FF2046C021B7
:10472000FDF766FD3220FDF771FCF5E730380A2809
:1047300001D20120704700207047000010B5002909
:104740000AD00878002807D005487844FCF7F8F824
:10475000002801D0002010BD0248784410BD0000A0
:10476000EE090000E609000010B591EA030F48BF0A
:1047700083F0004300F14283841A71EB030C05D2ED
:10478000121943EB0C03001B61EB0C014FEA1154AF
:10479000A4EB135CDFF81CE11EEA430F18BF9EEA8E
:1047A000445F00F0748021EA045123EA0E0343F4CD
:1047B0008013DCF1200E32D322FA0CFE10EB0E0037
:1047C00023FA0CFE41EB0E01CCF1200E03FA0EFE93
:1047D00010EB0E00CCF1200E51F10001B1F5801F5D
:1047E00032D201EB045112FA0EF2BDE8104058BF6C
:1047F0007047401C38BF5FEA420218BF704700286C
:1048000014BF20F0010041F100014FEA410313F50C
:10481000001F38BF7047A1F1C04100F0E1BA012A82
:1048200043EB0302ACF1200CDCF11F0E32BF4FF062
:10483000000E23FA0CF310EB030041EB0451B4EB30
:10484000115FD0D0A1EB045101F58011490801EBB3
:1048500004515FEA30000ED350F1000038BF12FA65
:104860000EFE08D1BDE81040C9E7401C38BF5FEA22
:104870004202CAD1C3E7BDE810404FEA410313F535
:10488000001F38BF7047A1F1C04100F0A9BA9EEAED
:10489000445F08D011EA5E0FBDE8104004BF01F08C
:1048A000004100207047BDE8104070B500F04AFAA2
:1048B00064FBBE3E0000E0FF2DE9C04130B4DFF8EC
:1048C000A4C23CEA111418BF3CEA131400F0ED80B6
:1048D0001CEA111481EA030544EAD57418BF1CEAE6
:1048E000131500F0C880A4EB050404F17F7404F5EF
:1048F00000344FF0004545EAC12145EAC32341EAAF
:10490000505143EA52534FEAC0204FEAC222994223
:1049100008BF904200F09D804FEA13650FF24416E5
:10492000765D4FEA134506FB05F7C7F1807706FB76
:1049300007F74FEAD737A7FB03687642A7FB06CEF7
:10494000C8F5803838BFA8F1010807FB08E6A6FBC8
:10495000028C4FF0000EE6FB03CEDCF1000CCEF132
:10496000004E38BFAEF1010EA6FB0C584FF0000709
:10497000E6FB0E87A1FB08C6A0FB07CE16EB0E06D2
:104980004FF0000545F10005E1FB076515F1E04E2C
:104990007EBFA4F580345FEA46066D4116F18007BC
:1049A00045F100054FEA172747EA05674FEA152545
:1049B0004FEA0666A6F1DE46B6F1805F20D938469A
:1049C00005EBC47124F0010C01EB0C11BCF1FE6F7E
:1049D00002D8F0BCBDE8008124425CBF01F5801E16
:1049E0009EEAC47F02D4F0BCBDE80081244200F1FD
:1049F0003980A1F1C041F0BCBDE8004100F0F0B940
:104A00004FEAD02040EA41504FEAD1214FEAD2226A
:104A100042EA43524FEAD323A7FB028607FB036611
:104A200005FB02661EEA0E0F58BFA6EB0056B6EB5A
:104A300000564FEA520E4EEAC37E18EB0E0E56EBAE
:104A4000530EBCD518EB02085E417F1C55F10005E2
:104A5000B5E74FF480154FF000074FF000064FF018
:104A60000008ACE701F1C04101F000414FF0000047
:104A7000F0BCBDE800810CEA131511EA0C1F00D050
:104A80000CE013EA0C1F00F026804FF0000081EAD2
:104A9000030101F00041F0BCBDE80081F0BCBDE8BD
:104AA000004181EA030100F09BB9F0BCBDE8004180
:104AB00070B500F047F900BF097EFC3E00F007B872
:104AC0004FF0000081EA030101F00041704781EAE4
:104AD000030100F085B9F0BCBDE8004122494FF068
:104AE00000007047FFFDFBF9F7F5F4F2F0EEEDEB97
:104AF000E9E8E6E4E3E1E0DEDDDBDAD8D7D5D4D3DC
:104B0000D1D0CFCDCCCBCAC8C7C6C5C4C2C1C0BF27
:104B1000BEBDBCBBBAB9B8B7B6B5B4B3B2B1B0AF2D
:104B2000AEADACABAAA9A8A8A7A6A5A4A3A3A2A111
:104B3000A09F9F9E9D9C9C9B9A99999897979695CC
:104B400095949393929191908F8F8E8E8D8C8C8B68
:104B50008B8A8989888887878685858484838382F0
:104B6000828181800000FF070000F87F4FEA410347
:104B70004FEA5353A3F58063D3F11E03C8BFD3F1AB
:104B8000210C0CDD4FF0004242EAC12242EA5052B1
:104B900032FA03FC8CEAE17CACEBE1707047102B3D
:104BA000C4BF0020704703F5787CBCF1FF3F04D000
:104BB0006FF0004282EA2100704770B500F0C2F841
:104BC0004992248000207047F2E7B0FA80F310FA8F
:104BD00003F10AD0C3F11D0303F580634FEA0352CA
:104BE0004FEA415002EBD12170474FF0000070476F
:104BF00070B5DFF848C11CEA111E1EBF1CEA131570
:104C00009EEA0C0F95EA0C0F00F06F8081EA030416
:104C10004EEAD47EAE4421EA4C1123EA4C1341F40F
:104C2000801143F48013AEF17F7EA1FB024CA0FB08
:104C30000365361955EB0C05A1FB034C4CF1000341
:104C4000A0FB021C16EB0C06654153F10003094260
:104C500018BF46F0010613F4007F0BD14FEA033171
:104C60004FEA053041EA155140EA165034036FF01F
:104C700003020AE04FEAC3214FEAC52041EA555139
:104C800040EA5650F4026FF0020202EB2E4201EBB2
:104C9000025585EACE710AD05FEA440C18BF24F0B1
:104CA000004450F1000041F1000120EAD47040F2CC
:104CB000FE7C624500D270BDA84214BF4FF0804414
:104CC0004FF04044002E08BF0024BEF1806FA8BF03
:104CD000A1F1C041BDE8704080F2828001F1C04185
:104CE00001F000414FF0000070470CEA13159EEAF6
:104CF0000C0F18BF95EA0C0F06D081EA030E4FF097
:104D000000000EF0004170BD00F01CF88900013E6B
:104D100000F007B800F009B84FEA430C5FEA5C5CAA
:104D200008D081EA030100F05BB84FEA410C5FEA6A
:104D30005C5CF6D102494FF0000070470000FF07AD
:104D40000000F87F0EF1020E2EF0030E5EF8046BE9
:104D5000364205D4012A43EB030515F5001F12D88E
:104D6000012841EB010C1CF5001F0CD80ED14FEAB5
:104D7000D17C0CEB4C0C0CF1020C15F5001F08BF9C
:104D80004CEBD37C04E04FF0080C01E04FEAD37CFD
:104D90000CEB4C0526FA05F606F00706B6F1040CF6
:104DA00006D20EEB860CBDE870404CF0010C60475B
:104DB000DFE80CF0090B02024FF00041A1F50021E1
:104DC0004FF0000070BD19461046012851EB010458
:104DD00018BFD4F5001484BF002001F0004170BD5D
:104DE0000808A0F500114FEA3101704710B591EAAB
:104DF000030F48BF83F000433FF5BEAC841A71EB4C
:104E0000030C07D28CF0004C121943EB0C03001B6F
:104E100061EB0C014FEA1154A4EB135CDFF8A4E141
:104E20001EEA430F18BF9EEA445F00F0B48021EAF7
:104E3000045123EA6E035242C3EB6E0338BF5B1E7C
:104E4000DCF1200E25D322FA0CFE10EB0E0043FA03
:104E50000CFE41EB0E01CCF1200E03FA0EFE10EB1E
:104E60000E00CCF1200E51F1000129D401EB0451C8
:104E700012FA0EF2BDE8104058BF7047401C1CBF2C
:104E8000B2F1004F704700280CBF491C20F0010010
:104E9000704712EB020E43EB030218BF4FF0010EF6
:104EA0004EEA4202ACF1200CDCF11E0E56D943FA58
:104EB0000CFE10EB0E00CCF11E0E51F1FF31D5D5DA
:104EC0000EF1010E12FA0EFE404141EB010101EB21
:104ED000445C5FEA5C5C10D901EB045110EBDE70BE
:104EE00038BFBEF1004FBDE8104018BF7047002822
:104EF0000CBF491C20F00100704734D24FEAD42C7B
:104F000024F4006411F500111BD0B1FA81F20B3AC0
:104F1000A41AA41ED2F12003914030FA03F31943DE
:104F2000904001EBCC7101EB0451002CBDE8104026
:104F3000A8BF704701F1C04101F000414FF00000EF
:104F40007047B0FA80F310FA03F102D1BDE81040C7
:104F50007047E41A173C4805C90AE2E701EB04511F
:104F6000BDE81040704749104FEA300001EB045192
:104F7000BDE8104002E04FF0000170474A0008BF52
:104F80000042F8D0B2F5001F28BF704701F0004181
:104F90004FF0000070479EEA445F07D011EA5E0FB1
:104FA000BDE8104004BF002100207047BDE810405C
:104FB00070B5FFF7C7FE00BF40DFF63E104683F036
:104FC000004170470000E0FFF1EE100A4FF6FF715C
:104FD000C0F2C03120EA010040F04070E1EE100A5A
:104FE0007047000000000000000000003031323344
:104FF000343536373839414243444546403058000D
:10500000303132333435363738396162636465663E
:10501000403078000400000800000000000000029A
:105020000001000010000000000000000001020369
:10503000040607080900000000010203043A535463
:1050400044455252003A535444494E003A53544452
:105050004F555400000610160006101643414E200E
:1050600046696C74657220436F6E6669672046619D
:10507000696C210D0043414E2073656E6420746598
:1050800073742064617461206661696C210D004352
:10509000414E2046696C74657220436F6E66696785
:1050A0002053756363657373210D0043414E207374
:1050B000656E642074657374206461746120737517
:1050C0006363657373210D0043414E5F49545F5222
:1050D000585F4649464F305F4D53475F50454E44F9
:1050E000494E4720456E61626C6520537563636568
:1050F00073730D00736F6D65206572726F72206837
:105100006572652E00737461636B204F7665722043
:10511000466C6F770D0A000048520008000000201E
:1051200020000000C4010008685200082000002090
:10513000100C0000E0010008100100004300000016
:10514000F8FFFFFF004040404040404040404141A8
:10515000414141404040404040404040404040404C
:1051600040404040400502020202020202020202E6
:1051700002020202022020202020202020202002E3
:105180000202020202029090909090901010101073
:10519000101010101010101010101010101010100F
:1051A00002020202020288888888888808080808A3
:1051B000080808080808080808080808080808086F
:1051C0000202020240000000000000000000000097
:1051D00000000000000000000000000000000000CF
:1051E00000000000000000000000000000000000BF
:1051F00000000000000000000000000000000000AF
:10520000000000000000000000000000000000009E
:10521000000000000000000000000000000000008E
:10522000000000000000000000000000000000007E
:10523000000000000000000000000000000000006E
:10524000000000000000000000000000000000005E
:105250000000000001000000100000000024F40025
:08526000010000000000000045
:040000050800018965
:00000001FF
